:100000000C942A000C94920B0C94C50B0C94F80BD6
:100010000C9447000C9447000C9447000C94470044
:100020000C9447000C9447000C9447000C94470034
:100030000C9447000C9447000C9447000C94470024
:100040000C9447000C9447000C9447000C94470014
:100050000C94470011241FBECFE5D4E0DEBFCDBF16
:1000600010E0A0E6B0E0ECE6FAE302C005900D92E5
:10007000AA3CB107D9F710E0AAECB0E001C01D928C
:10008000A83DB107E1F70E94AB1C0C94341D0C9401
:100090000000EF92FF920F931F937B018C0120E0F1
:1000A00030E040E05FE40E94490388238CF0C801FF
:1000B000B70120E030E040E05FE40E94C1010E940F
:1000C000A9039B01AC01205030404040504806C07D
:1000D000C801B7010E94A9039B01AC01B901CA0183
:1000E0001F910F91FF90EF900895A0E0B0E0EBE733
:1000F000F0E00C94B81CDC012B01FA019C919230C9
:1001000008F439C1EB018881823008F433C194309E
:1001100069F4843009F02FC111969C91119789815F
:10012000981709F428C1ADEAB0E025C1843009F47C
:1001300021C18230A9F4923009F01DC19A01AD01AC
:1001400088E0EA010990AE01E90109929E0181501F
:10015000C1F7E201898111969C918923818308C1AD
:10016000923009F407C112962D903C901397EB0141
:100170008A819B811496AD90BD90CD90DC901797AD
:10018000EC80FD800E811F819101281B390BB90184
:1001900037FF04C066277727621B730B6032710537
:1001A0000CF061C0121613066CF537014801062EDB
:1001B00004C096948794779467940A94D2F721E0C8
:1001C00030E040E050E004C0220F331F441F551FB1
:1001D0006A95D2F721503040404050402E213F21B7
:1001E00040235123211531054105510521F021E01E
:1001F00030E040E050E079018A01E628F72808293C
:1002000019293CC0232BD1F1260E371E350146019A
:10021000062E04C096948794779467940A94D2F734
:1002200021E030E040E050E004C0220F331F441FC3
:10023000551F6A95D2F721503040404050402A2146
:100240003B214C215D21211531054105510521F04E
:1002500021E030E040E050E059016A01A628B728CB
:10026000C828D9280BC0821593052CF01C01AA249C
:10027000BB24650103C0EE24FF24870111969C91E5
:10028000D20111968C91981709F445C0992339F041
:10029000A80197012A193B094C095D0906C0A6016E
:1002A00095012E193F09400B510B57FD08C01182D3
:1002B0003382228224833583468357831DC081E0A5
:1002C00081833382228288279927DC01821B930B4A
:1002D000A40BB50B84839583A683B7830DC0220F2F
:1002E000331F441F551F24833583468357838281E0
:1002F000938101979383828324813581468157813D
:10030000DA01C9010197A109B1098F5F9F4FAF4F72
:10031000BF4328F30BC0918333822282EA0CFB1C7B
:100320000C1D1D1DE482F5820683178383E0808304
:10033000248135814681578157FF1AC0C901AA27F8
:1003400097FDA095BA2F81709070A070B0705695EF
:10035000479537952795822B932BA42BB52B848318
:100360009583A683B7838281938101969383828349
:10037000DF0101C0D201CD01CDB7DEB7E2E10C94BF
:10038000D41CA0E2B0E0E7ECF1E00C94C41C69835B
:100390007A838B839C832D833E834F835887E9E048
:1003A000EE2EF12CEC0EFD1ECE010196B7010E943F
:1003B000D2048E010F5E1F4FCE010596B8010E9438
:1003C000D2048A8991E089278A8BC701B801AE01DE
:1003D000475E5F4F0E9475000E94FD03A096E6E015
:1003E0000C94E01CA0E2B0E0E8EFF1E00C94C41C37
:1003F00069837A838B839C832D833E834F835887C5
:10040000F9E0EF2EF12CEC0EFD1ECE010196B701A6
:100410000E94D2048E010F5E1F4FCE010596B801D7
:100420000E94D204C701B801AE01475E5F4F0E942F
:1004300075000E94FD03A096E6E00C94E01CA0E28B
:10044000B0E0E5E2F2E00C94B81C69837A838B8318
:100450009C832D833E834F835887CE010196BE0136
:10046000675F7F4F0E94D204CE010596BE016F5E8A
:100470007F4F0E94D2049985923088F0898982301A
:10048000C8F0943019F4823051F404C0843029F457
:10049000923081F48DEA90E0C6C0923049F420E0B9
:1004A0009A858A89981321E02A87CE010996BBC0D4
:1004B000823049F420E09A858A89981321E02A8BBA
:1004C000CE014196B0C02D843E844F8458886D88FB
:1004D0007E888F88988CEE24FF248701AA24BB2471
:1004E000650140E050E060E070E0E0E0F0E0C10174
:1004F00081709070892BE9F0E60CF71C081D191D1E
:100500009A01AB012A0D3B1D4C1D5D1D80E090E062
:10051000A0E0B0E0E614F7040805190520F481E036
:1005200090E0A0E0B0E0BA01A901480F591F6A1F8E
:100530007B1FAA0CBB1CCC1CDD1C97FE08C081E0F5
:1005400090E0A0E0B0E0A82AB92ACA2ADB2A3196B6
:10055000E032F10549F0660C771C881C991C569412
:10056000479437942794C3CFFA85EA892B893C892D
:100570008B859C85280F391F2E5F3F4F17C0CA01FE
:1005800081709070892B61F016950795F794E79428
:1005900080E090E0A0E0B0E8E82AF92A0A2B1B2BC3
:1005A00076956795579547952F5F3F4F77FDE7CF36
:1005B0000CC0440F551F661F771F17FD4160EE0CDE
:1005C000FF1C001F111F21503040403090E05907A0
:1005D00090E0690790E4790760F32B8F3C8FDB0193
:1005E000CA018F779070A070B07080349105A1051A
:1005F000B10561F447FD0AC0E114F10401051105DC
:1006000029F0405C5F4F6F4F7F4F40781A8EFE1786
:1006100011F081E08A8F4D8F5E8F6F8F78A383E01A
:10062000898FCE0149960E94FD03A096E2E10C94C9
:10063000D41CA8E1B0E0EFE1F3E00C94C41C6983A2
:100640007A838B839C832D833E834F83588789E0F5
:10065000E82EF12CEC0EFD1ECE010196B7010E9492
:10066000D2048E010F5E1F4FCE010596B8010E9485
:10067000D2048985823040F08989823028F0C70110
:10068000B8010E944A0501C08FEF6896E6E00C941D
:10069000E01CA8E1B0E0EFE4F3E00C94C41C698333
:1006A0007A838B839C832D833E834F83588789E095
:1006B000E82EF12CEC0EFD1ECE010196B7010E9432
:1006C000D2048E010F5E1F4FCE010596B8010E9425
:1006D000D2048985823040F08989823028F0C701B0
:1006E000B8010E944A0501C08FEF6896E6E00C94BD
:1006F000E01CA8E1B0E0EFE7F3E00C94C41C6983D0
:100700007A838B839C832D833E834F83588789E034
:10071000E82EF12CEC0EFD1ECE010196B7010E94D1
:10072000D2048E010F5E1F4FCE010596B8010E94C4
:10073000D2048985823040F08989823028F0C7014F
:10074000B8010E944A0501C081E06896E6E00C9479
:10075000E01CACE0B0E0EFEAF3E00C94C81C698365
:100760007A838B839C83CE010196BE016B5F7F4FA2
:100770000E94D2048D81823061F1823050F1843048
:1007800021F48E81882351F12EC02F81388537FDC9
:1007900020C06E812F3131051CF06623F9F023C093
:1007A0008EE190E0821B930B29853A854B855C8511
:1007B00004C056954795379527958A95D2F76623B5
:1007C000B1F050954095309521953F4F4F4F5F4F79
:1007D0000EC020E030E040E050E009C02FEF3FEFD6
:1007E0004FEF5FE704C020E030E040E050E8B9019F
:1007F000CA012C96E2E00C94E41CDF92EF92FF9287
:100800000F931F93FC01E480F58006811781D1804E
:100810008081823048F480E090E0A0E1B0E0E82AF6
:10082000F92A0A2B1B2BA5C0843009F49FC0823003
:1008300021F4EE24FF24870105C0E114F104010531
:10084000110519F4E0E0F0E096C0628173819FEF3A
:10085000623879070CF05BC022E83FEF261B370BAC
:100860002A3131052CF020E030E040E050E02AC091
:10087000B801A701022E04C0769567955795479554
:100880000A94D2F781E090E0A0E0B0E004C0880FC5
:10089000991FAA1FBB1F2A95D2F70197A109B10979
:1008A0008E219F21A023B1230097A105B10521F03E
:1008B00081E090E0A0E0B0E09A01AB01282B392B59
:1008C0004A2B5B2BDA01C9018F779070A070B07052
:1008D00080349105A105B10539F427FF09C0205CDA
:1008E0003F4F4F4F5F4F04C0215C3F4F4F4F5F4F13
:1008F000E0E0F0E02030A0E03A07A0E04A07A0E402
:100900005A0710F0E1E0F0E079018A0127C0603871
:10091000710564F5FB01E158FF4FD801C7018F77DE
:100920009070A070B07080349105A105B10539F4C4
:10093000E7FE0DC080E490E0A0E0B0E004C08FE3EB
:1009400090E0A0E0B0E0E80EF91E0A1F1B1F17FFA1
:1009500005C016950795F794E794319687E01695AC
:100960000795F794E7948A95D1F705C0EE24FF2404
:100970008701EFEFF0E06E2F679566276795902F60
:100980009F77D794DD24D7948E2F8695492F462BB9
:10099000582F5D29B701CA011F910F91FF90EF9069
:1009A000DF900895FC01DB01408151812281622F9B
:1009B0006F7770E0221F2227221F9381892F880FD3
:1009C000822B282F30E0991F9927991F11969C930D
:1009D000119721153105A9F54115510561057105DD
:1009E00011F482E037C082E89FEF13969C938E93B8
:1009F00012979A01AB0167E0220F331F441F551F66
:100A00006A95D1F783E08C930DC0220F331F441FEA
:100A1000551F12968D919C911397019713969C9355
:100A20008E931297203080E0380780E0480780E4FA
:100A3000580758F314962D933D934D935C93179755
:100A400008952F3F310579F4411551056105710570
:100A500019F484E08C93089564FF03C081E08C93C3
:100A600012C01C9210C02F57304013963C932E9307
:100A7000129783E08C9387E0440F551F661F771F02
:100A80008A95D1F7706414964D935D936D937C9322
:100A9000179708951F93DC01FB019C91923008F495
:100AA00047C08081823008F443C0943051F41196DD
:100AB0001C91843099F58181682F70E0611B710968
:100AC0003FC0843021F0923031F48230B9F181811D
:100AD000882389F12DC011961C9111978230F1F075
:100AE00081811817D9F412962D913C911397828128
:100AF00093818217930794F028173907BCF0149656
:100B00008D919D910D90BC91A02D248135814681C0
:100B10005781281739074A075B0718F4112341F05A
:100B20000AC082179307A407B50740F4112319F0F0
:100B300061E070E005C06FEF7FEF02C060E070E041
:100B4000CB011F910895DF93CF930F92CDB7DEB7FE
:100B5000198257C08981282F30E0C901880F991F59
:100B6000820F931FFC01EA54FF4F80818830E9F423
:100B70008981282F30E0C901880F991F820F931FA8
:100B8000FC01EB54FF4F40818981282F30E0C901DF
:100B9000880F991F820F931FFC01E954FF4F90812A
:100BA000842F692F0E94110A29C08981282F30E0E3
:100BB000C901880F991F820F931FFC01EB54FF4F4F
:100BC00050818981282F30E0C901880F991F820F39
:100BD000931FFC01EA54FF4F40818981282F30E0A8
:100BE000C901880F991F820F931FFC01E954FF4F21
:100BF0009081852F642F492F0E94090689818F5F7C
:100C000089838981882309F4A5CF0F90CF91DF9143
:100C10000895DF93CF9300D000D00F92CDB7DEB709
:100C200089836A834B838981843008F0D8C18A81A3
:100C3000883008F0D4C18981282F30E03D832C838F
:100C40008C819D818130910509F484C02C813D8186
:100C5000223031052CF48C819D81009771F0BFC149
:100C60002C813D812230310509F4E1C08C819D81C8
:100C70008330910509F448C1B2C18B81882341F5C5
:100C8000AAE3B0E0EAE3F0E08081482F8A81282FD0
:100C900030E081E090E002C0880F991F2A95E2F7CA
:100CA000809584238C93ABE3B0E0EBE3F0E08081AC
:100CB000482F8A81282F30E081E090E0022E02C088
:100CC000880F991F0A94E2F7809584238C9387C13B
:100CD0008B81813039F5AAE3B0E0EAE3F0E080816E
:100CE000482F8A81282F30E081E090E002C0880FF1
:100CF000991F2A95E2F7809584238C93ABE3B0E0AB
:100D0000EBE3F0E08081482F8A81282F30E081E0FA
:100D100090E0022E02C0880F991F0A94E2F7842BFC
:100D20008C935DC18B81823009F059C1AAE3B0E098
:100D3000EAE3F0E08081482F8A81282F30E081E0CB
:100D400090E0022E02C0880F991F0A94E2F7842BCC
:100D50008C9345C18B81882341F5A7E3B0E0E7E39D
:100D6000F0E08081482F8A81282F30E081E090E0F8
:100D700002C0880F991F2A95E2F7809584238C93EF
:100D8000A8E3B0E0E8E3F0E08081482F8A81282FD3
:100D900030E081E090E0022E02C0880F991F0A9493
:100DA000E2F7809584238C931AC18B81813039F5C9
:100DB000A7E3B0E0E7E3F0E08081482F8A81282FA5
:100DC00030E081E090E002C0880F991F2A95E2F799
:100DD000809584238C93A8E3B0E0E8E3F0E0808181
:100DE000482F8A81282F30E081E090E0022E02C057
:100DF000880F991F0A94E2F7842B8C93F0C08B81A3
:100E0000823009F0ECC0A7E3B0E0E7E3F0E08081D6
:100E1000482F8A81282F30E081E090E0022E02C026
:100E2000880F991F0A94E2F7842B8C93D8C08B818A
:100E3000882341F5A4E3B0E0E4E3F0E08081482FAB
:100E40008A81282F30E081E090E002C0880F991F4E
:100E50002A95E2F7809584238C93A5E3B0E0E5E33F
:100E6000F0E08081482F8A81282F30E081E090E0F7
:100E7000022E02C0880F991F0A94E2F780958423FE
:100E80008C93ADC08B81813039F5A4E3B0E0E4E30D
:100E9000F0E08081482F8A81282F30E081E090E0C7
:100EA00002C0880F991F2A95E2F7809584238C93BE
:100EB000A5E3B0E0E5E3F0E08081482F8A81282FA8
:100EC00030E081E090E0022E02C0880F991F0A9462
:100ED000E2F7842B8C9383C08B81823009F07FC032
:100EE000A4E3B0E0E4E3F0E08081482F8A81282F7A
:100EF00030E081E090E0022E02C0880F991F0A9432
:100F0000E2F7842B8C936BC08B81882341F5A1E39E
:100F1000B0E0E1E3F0E08081482F8A81282F30E0C3
:100F200081E090E002C0880F991F2A95E2F7809532
:100F300084238C93A2E3B0E0E2E3F0E08081482FC9
:100F40008A81282F30E081E090E0022E02C0880FD5
:100F5000991F0A94E2F7809584238C9340C08B817B
:100F6000813039F5A1E3B0E0E1E3F0E08081482F82
:100F70008A81282F30E081E090E002C0880F991F1D
:100F80002A95E2F7809584238C93A2E3B0E0E2E314
:100F9000F0E08081482F8A81282F30E081E090E0C6
:100FA000022E02C0880F991F0A94E2F7842B8C93BB
:100FB00016C08B81823099F4A1E3B0E0E1E3F0E068
:100FC0008081482F8A81282F30E081E090E0022E36
:100FD00002C0880F991F0A94E2F7842B8C930F901C
:100FE0000F900F900F900F90CF91DF910895DF93A6
:100FF000CF9300D000D00F92CDB7DEB78A836B833A
:1010000019828A81843008F084C08B81883008F08E
:1010100080C08A81282F30E03D832C834C815D8104
:101020004130510579F18C819D818230910534F4F4
:101030002C813D812115310569F06BC04C815D81AA
:1010400042305105B9F18C819D818330910509F4BD
:1010500049C05FC0E9E3F0E08081282F30E08B8158
:10106000882F90E0A90102C0559547958A95E2F72F
:10107000CA0181709070882319F081E0898349C08A
:10108000198247C0E6E3F0E08081282F30E08B81B1
:10109000882F90E0A90102C0559547958A95E2F7FF
:1010A000CA0181709070882319F081E0898331C072
:1010B00019822FC0E3E3F0E08081282F30E08B819C
:1010C000882F90E0A90102C0559547958A95E2F7CF
:1010D000CA0181709070882319F081E0898319C05A
:1010E000198217C0E0E3F0E08081282F30E08B8187
:1010F000882F90E0A90102C0559547958A95E2F79F
:10110000CA0181709070882319F081E0898301C041
:10111000198289810F900F900F900F900F90CF91AF
:10112000DF910895DF93CF9300D000D00F92CDB719
:10113000DEB789836A834B838981843008F0E4C0F9
:101140008A81883008F0E0C08981282F30E03D8313
:101150002C838C819D818130910509F447C02C81BD
:101160003D81223031052CF48C819D81009771F0F6
:10117000CBC02C813D812230310509F467C08C81C0
:101180009D818330910509F491C0BEC08B8181306F
:10119000A1F4ABE3B0E0EBE3F0E08081482F8A817B
:1011A000282F30E081E090E0022E02C0880F991FC6
:1011B0000A94E2F7842B8C93A7C08B81882309F0D3
:1011C000A3C0ABE3B0E0EBE3F0E08081482F8A817D
:1011D000282F30E081E090E0022E02C0880F991F96
:1011E0000A94E2F7809584238C938EC08B818130A2
:1011F000A1F4A8E3B0E0E8E3F0E08081482F8A8121
:10120000282F30E081E090E0022E02C0880F991F65
:101210000A94E2F7842B8C9377C08B81882309F0A2
:1012200073C0A8E3B0E0E8E3F0E08081482F8A8152
:10123000282F30E081E090E0022E02C0880F991F35
:101240000A94E2F7809584238C935EC08B81813071
:10125000A1F4A5E3B0E0E5E3F0E08081482F8A81C6
:10126000282F30E081E090E0022E02C0880F991F05
:101270000A94E2F7842B8C9347C08B81882309F072
:1012800043C0A5E3B0E0E5E3F0E08081482F8A8128
:10129000282F30E081E090E0022E02C0880F991FD5
:1012A0000A94E2F7809584238C932EC08B81813041
:1012B000A1F4A2E3B0E0E2E3F0E08081482F8A816C
:1012C000282F30E081E090E0022E02C0880F991FA5
:1012D0000A94E2F7842B8C9317C08B818823A1F4A6
:1012E000A2E3B0E0E2E3F0E08081482F8A81282F7A
:1012F00030E081E090E0022E02C0880F991F0A942E
:10130000E2F7809584238C930F900F900F900F90AD
:101310000F90CF91DF910895DF93CF9300D000D04D
:10132000CDB7DEB789836A838981843008F072C0C3
:101330008A81883008F06EC08981282F30E03C8394
:101340002B838B819C818130910549F12B813C81DC
:10135000223031052CF48B819C81009761F05AC0BA
:101360002B813C812230310571F18B819C8183304E
:101370009105E9F14FC0ABE3B0E0EBE3F0E0808131
:10138000482F8A81282F30E081E090E0022E02C0B1
:10139000880F991F0A94E2F784278C933BC0A8E337
:1013A000B0E0E8E3F0E08081482F8A81282F30E028
:1013B00081E090E0022E02C0880F991F0A94E2F7A4
:1013C00084278C9327C0A5E3B0E0E5E3F0E08081BB
:1013D000482F8A81282F30E081E090E0022E02C061
:1013E000880F991F0A94E2F784278C9313C0A2E315
:1013F000B0E0E2E3F0E08081482F8A81282F30E0DE
:1014000081E090E0022E02C0880F991F0A94E2F753
:1014100084278C930F900F900F900F90CF91DF91B6
:101420000895DF93CF9300D000D0CDB7DEB7898386
:101430006A838981843008F096C08981282F30E042
:101440003C832B838B819C8181309105A9F12B8179
:101450003C81223031052CF48B819C81009771F006
:1014600082C02B813C812230310509F443C08B813D
:101470009C818330910509F45AC075C08A81882304
:1014800039F4EAE3F0E01082EBE3F0E010826BC0A5
:101490008A81813041F4EAE3F0E01082EBE3F0E08E
:1014A0008FEF808360C08A818F3F09F05CC0EAE3E0
:1014B000F0E08FEF808357C08A81882339F4E7E317
:1014C000F0E01082E8E3F0E010824DC08A818130C4
:1014D00041F4E7E3F0E01082E8E3F0E08FEF80838F
:1014E00042C08A818F3F09F03EC0E7E3F0E08FEF12
:1014F000808339C08A81882339F4E4E3F0E01082E4
:10150000E5E3F0E010822FC08A81813041F4E4E30A
:10151000F0E01082E5E3F0E08FEF808324C08A8161
:101520008F3F09F5E4E3F0E08FEF80831CC08A81F0
:10153000882339F4E1E3F0E01082E2E3F0E0108286
:1015400012C08A81813041F4E1E3F0E01082E2E3ED
:10155000F0E08FEF808307C08A818F3F21F4E1E3C1
:10156000F0E08FEF80830F900F900F900F90CF914E
:10157000DF910895DF93CF9300D000D0CDB7DEB7D1
:101580008A8319828A81843090F58A81282F30E0FD
:101590003C832B838B819C8181309105D1F02B8101
:1015A0003C81223031052CF48B819C81009761F0C5
:1015B0001EC02B813C812230310581F08B819C81C2
:1015C0008330910581F013C0E9E3F0E080818983E5
:1015D0000EC0E6E3F0E08081898309C0E3E3F0E038
:1015E0008081898304C0E0E3F0E080818983898180
:1015F0000F900F900F900F90CF91DF910895DF9390
:10160000CF9300D000D0CDB7DEB789836A838981BC
:10161000843090F58981282F30E03C832B838B81A7
:101620009C8181309105D1F02B813C8122303105A4
:101630002CF48B819C81009761F01EC02B813C8132
:101640002230310581F08B819C818330910581F0BE
:1016500013C0EBE3F0E08A8180830EC0E8E3F0E0A2
:101660008A81808309C0E5E3F0E08A81808304C039
:10167000E2E3F0E08A8180830F900F900F900F904B
:10168000CF91DF910895DF93CF9300D00F92CDB724
:10169000DEB789838981843008F03EC08981282F94
:1016A00030E03B832A838A819B8181309105E9F078
:1016B0002A813B81223031052CF48A819B8100975D
:1016C00061F02AC02A813B8122303105B1F08A8144
:1016D0009B8183309105C9F01FC0ABE3B0E0EBE321
:1016E000F0E0808180958C9317C0A8E3B0E0E8E338
:1016F000F0E0808180958C930FC0A5E3B0E0E5E336
:10170000F0E0808180958C9307C0A2E3B0E0E2E333
:10171000F0E0808180958C930F900F900F90CF9187
:10172000DF9108951F920F920FB60F9211242F93FD
:101730003F934F935F936F937F938F939F93AF9359
:10174000BF93EF93FF93DF93CF93CDB7DEB7809135
:10175000CA009091CB00009729F0E091CA00F09167
:10176000CB000995CF91DF91FF91EF91BF91AF91A0
:101770009F918F917F916F915F914F913F912F91A9
:101780000F900FBE0F901F9018951F920F920FB6DB
:101790000F9211242F933F934F935F936F937F93F7
:1017A0008F939F93AF93BF93EF93FF93DF93CF9369
:1017B000CDB7DEB78091CC009091CD00009729F095
:1017C000E091CC00F091CD000995CF91DF91FF9190
:1017D000EF91BF91AF919F918F917F916F915F91A9
:1017E0004F913F912F910F900FBE0F901F90189522
:1017F0001F920F920FB60F9211242F933F934F9386
:101800005F936F937F938F939F93AF93BF93EF9368
:10181000FF93DF93CF93CDB7DEB78091CE00909149
:10182000CF00009729F0E091CE00F091CF0009950C
:10183000CF91DF91FF91EF91BF91AF919F918F91E8
:101840007F916F915F914F913F912F910F900FBEBC
:101850000F901F901895DF93CF9300D0CDB7DEB7D0
:101860009A83898389819A819093CB008093CA005F
:101870000F900F90CF91DF910895DF93CF9300D019
:10188000CDB7DEB79A83898389819A819093CD0001
:101890008093CC000F900F90CF91DF910895DF934C
:1018A000CF9300D0CDB7DEB79A83898389819A819F
:1018B0009093CF008093CE000F900F90CF91DF9147
:1018C0000895DF93CF9300D0CDB7DEB789836A83C5
:1018D00083E062E04A810E940906A5E5B0E0E5E503
:1018E000F0E08081982F9C7F8981892B8C93ABE5D8
:1018F000B0E0EBE5F0E0808180648C930F900F9076
:10190000CF91DF910895DF93CF9300D0CDB7DEB7AD
:1019100089836A8383E063E04A810E940906A5E522
:10192000B0E0E5E5F0E08081282F237F8981882FD2
:1019300090E0880F991F880F991F822B8C93ABE53D
:10194000B0E0EBE5F0E0808180688C930F900F9021
:10195000CF91DF910895DF93CF9300D0CDB7DEB75D
:1019600089836A8381E062E04A810E940906898155
:10197000823041F4A4E5B0E0E4E5F0E080818F7BC3
:101980008C930AC08981833039F4A4E5B0E0E4E5A2
:10199000F0E0808180648C93ABE5B0E0EBE5F0E0B3
:1019A000808180628C930F900F90CF91DF9108958A
:1019B000DF93CF93CDB7DEB7ABE5B0E0EBE5F0E07A
:1019C00080818F7B8C93CF91DF910895DF93CF93AC
:1019D000CDB7DEB7ABE5B0E0EBE5F0E080818F7727
:1019E0008C93CF91DF910895DF93CF93CDB7DEB77E
:1019F000ABE5B0E0EBE5F0E080818F7D8C93CF919B
:101A0000DF910895DF93CF9300D0CDB7DEB7898300
:101A10006A8389816A8142E00E9409060F900F90D3
:101A2000CF91DF910895DF93CF9300D00F92CDB780
:101A3000DEB789836A834B838B81882331F4898164
:101A40006A8140E00E94920808C08B81813029F4AD
:101A500089816A8141E00E9492080F900F900F9057
:101A6000CF91DF910895DF93CF9300D00F92CDB740
:101A7000DEB789836A834B838B81882331F4898124
:101A80006A8141E00E94920808C08B81813029F46C
:101A900089816A8140E00E9492080F900F900F9018
:101AA000CF91DF910895DF93CF9300D0CDB7DEB70C
:101AB00089836A8389816A810E948C090F900F90C3
:101AC000CF91DF910895DF93CF93CDB7DEB780E05C
:101AD00063E042E00E94090680E062E042E00E948A
:101AE000090681E060E042E00E94090681E061E0D1
:101AF00042E00E94090681E062E042E00E9409069D
:101B000081E064E042E00E94090682E00E94940DB8
:101B100088E20E94940D8CE00E94940D81E00E9466
:101B2000940DCF91DF9108950F931F93DF93CF937F
:101B3000CDB7DEB7C456D0400FB6F894DEBF0FBEA7
:101B4000CDBFFE01EC59FF4F808380E063E040E0B1
:101B50000E949208FE01E15AFF4F80E090E0A0E869
:101B6000BFE380839183A283B3838E01055A1F4F05
:101B7000FE01E15AFF4F608171818281938120E0F3
:101B800030E04AE755E40E941F02DC01CB01F80176
:101B900080839183A283B383FE01E55AFF4F608166
:101BA00071818281938120E030E040E85FE30E9410
:101BB0007903882344F4FE01E75AFF4F81E090E067
:101BC0009183808364C0FE01E55AFF4F608171817B
:101BD0008281938120E03FEF4FE757E40E94190391
:101BE00018160CF043C0FE01E15AFF4F608171816D
:101BF0008281938120E030E040E251E40E941F02A4
:101C0000DC01CB018E01075A1F4FBC01CD010E94A0
:101C10004900DC01CB01F801918380831FC0FE01E4
:101C2000E95AFF4F80E991E091838083FE01E95AF0
:101C3000FF4F808191810197F1F7FE01E95AFF4F33
:101C400091838083DE01A75ABF4FFE01E75AFF4F01
:101C500080819181019711969C938E93FE01E75AA2
:101C6000FF4F808191810097D1F627C08E01075ADE
:101C70001F4FFE01E55AFF4F608171818281938180
:101C80000E944900DC01CB01F80191838083DE01D1
:101C9000AB5ABF4FFE01E75AFF4F808191818D9370
:101CA0009C93FE01EB5AFF4F808191810197F1F7E0
:101CB000FE01EB5AFF4F9183808380E062E041E0B8
:101CC0000E949208FE01EF5AFF4F80E090E0A0E8EA
:101CD000BFE380839183A283B3838E01035B1F4F95
:101CE000FE01EF5AFF4F608171818281938120E074
:101CF00030E04AE755E40E941F02DC01CB01F80105
:101D000080839183A283B383FE01E35BFF4F6081F5
:101D100071818281938120E030E040E85FE30E949E
:101D20007903882344F4FE01E55BFF4F81E090E0F6
:101D30009183808364C0FE01E35BFF4F608171810A
:101D40008281938120E03FEF4FE757E40E9419031F
:101D500018160CF043C0FE01EF5AFF4F60817181ED
:101D60008281938120E030E040E251E40E941F0232
:101D7000DC01CB018E01055B1F4FBC01CD010E9430
:101D80004900DC01CB01F801918380831FC0FE0173
:101D9000E75BFF4F80E991E091838083FE01E75B81
:101DA000FF4F808191810197F1F7FE01E75BFF4FC3
:101DB00091838083DE01A55BBF4FFE01E55BFF4F92
:101DC00080819181019711969C938E93FE01E55B32
:101DD000FF4F808191810097D1F627C08E01055B6E
:101DE0001F4FFE01E35BFF4F608171818281938110
:101DF0000E944900DC01CB01F80191838083DE0160
:101E0000A95BBF4FFE01E55BFF4F808191818D9300
:101E10009C93FE01E95BFF4F808191810197F1F76F
:101E2000FE01E95BFF4F91838083DE01AD59BF4F17
:101E3000FE01EC59FF4F808182958F708C93FE01DB
:101E4000ED59FF4F8081982F917081E060E0492F1C
:101E50000E949208FE01ED59FF4F80818695982FD0
:101E6000917081E061E0492F0E949208FE01ED59D6
:101E7000FF4F808186958695982F917081E062E072
:101E8000492F0E949208FE01ED59FF4F80818695EF
:101E900086958695982F917081E064E0492F0E9485
:101EA0009208FE01ED5BFF4F80E090E0A0E8BFE309
:101EB00080839183A283B3838E01015C1F4FFE0157
:101EC000ED5BFF4F608171818281938120E030E082
:101ED0004AE755E40E941F02DC01CB01F801808330
:101EE0009183A283B383FE01FF9660817181828119
:101EF000938120E030E040E85FE30E94790388238B
:101F00002CF481E090E09EAF8DAF46C0FE01FF96BD
:101F1000608171818281938120E03FEF4FE757E438
:101F20000E941903181664F5FE01ED5BFF4F6081F6
:101F300071818281938120E030E040E251E40E948F
:101F40001F02DC01CB01BC01CD010E944900DC0174
:101F5000CB019EAF8DAF0FC080E991E09CAF8BAFFE
:101F60008BAD9CAD0197F1F79CAF8BAF8DAD9EAD66
:101F700001979EAF8DAF8DAD9EAD009769F716C0EE
:101F8000FE01FF9660817181828193810E944900E8
:101F9000DC01CB019EAF8DAF8DAD9EAD9AAF89AF09
:101FA00089AD9AAD0197F1F79AAF89AF80E062E011
:101FB00040E00E94920880E090E0A0E8BFE38DAB93
:101FC0009EABAFABB8AF6DA97EA98FA998AD20E04D
:101FD00030E04AE755E40E941F02DC01CB0189ABE7
:101FE0009AABABABBCAB69A97AA98BA99CA920E041
:101FF00030E040E85FE30E94790388232CF481E01D
:1020000090E098AB8FA73FC069A97AA98BA99CA93A
:1020100020E03FEF4FE757E40E94190318164CF5F4
:102020006DA97EA98FA998AD20E030E040E251E48F
:102030000E941F02DC01CB01BC01CD010E944900BE
:10204000DC01CB0198AB8FA70FC080E991E09EA780
:102050008DA78DA59EA50197F1F79EA78DA78FA5AA
:1020600098A9019798AB8FA78FA598A9009769F7B2
:1020700014C069A97AA98BA99CA90E944900DC0116
:10208000CB0198AB8FA78FA598A99CA78BA78BA5F1
:102090009CA50197F1F79CA78BA780E062E041E047
:1020A0000E94920880E090E0A0E8BFE38FA398A789
:1020B000A9A7BAA76FA178A589A59AA520E030E0C5
:1020C0004AE755E40E941F02DC01CB018BA39CA3CD
:1020D000ADA3BEA36BA17CA18DA19EA120E030E0A9
:1020E00040E85FE30E94790388232CF481E090E0CC
:1020F0009AA389A33FC06BA17CA18DA19EA120E0E2
:102100003FEF4FE757E40E94190318164CF56FA1F3
:1021100078A589A59AA520E030E040E251E40E942C
:102120001F02DC01CB01BC01CD010E944900DC0192
:10213000CB019AA389A30FC080E991E098A38F8F68
:102140008F8D98A10197F1F798A38F8F89A19AA1FC
:1021500001979AA389A389A19AA1009769F714C04E
:102160006BA17CA18DA19EA10E944900DC01CB0145
:102170009AA389A389A19AA19E8F8D8F8D8D9E8D03
:102180000197F1F79E8F8D8FDE01AD59BF4FFE0194
:10219000EC59FF4F80818F708C93FE01ED59FF4FFA
:1021A0008081982F917081E060E0492F0E94920811
:1021B000FE01ED59FF4F80818695982F917081E047
:1021C00061E0492F0E949208FE01ED59FF4F808186
:1021D00086958695982F917081E062E0492F0E9444
:1021E0009208FE01ED59FF4F808186958695869570
:1021F000982F917081E064E0492F0E94920880E05E
:1022000090E0A0E8BFE3898F9A8FAB8FBC8F698D78
:102210007A8D8B8D9C8D20E030E04AE755E40E945A
:102220001F02DC01CB018D8B9E8BAF8BB88F6D892C
:102230007E898F89988D20E030E040E85FE30E943E
:10224000790388232CF481E090E09C8B8B8B3FC03A
:102250006D897E898F89988D20E03FEF4FE757E4A5
:102260000E94190318164CF5698D7A8D8B8D9C8D03
:1022700020E030E040E251E40E941F02DC01CB018B
:10228000BC01CD010E944900DC01CB019C8B8B8BF2
:102290000FC080E991E09A8B898B89899A8901978F
:1022A000F1F79A8B898B8B899C8901979C8B8B8BFF
:1022B0008B899C89009769F714C06D897E898F8905
:1022C000988D0E944900DC01CB019C8B8B8B8B8904
:1022D0009C89988B8F878F8598890197F1F7988BC8
:1022E0008F8780E062E040E00E94920880E090E00A
:1022F000A0E8BFE38B879C87AD87BE876B857C8515
:102300008D859E8520E030E04AE755E40E941F025B
:10231000DC01CB018F839887A987BA876F81788585
:1023200089859A8520E030E040E85FE30E947903E8
:1023300088232CF481E090E09E838D833FC06F81E1
:10234000788589859A8520E03FEF4FE757E40E9422
:10235000190318164CF56B857C858D859E8520E0CC
:1023600030E040E251E40E941F02DC01CB01BC01DD
:10237000CD010E944900DC01CB019E838D830FC0FB
:1023800080E991E09C838B838B819C810197F1F79D
:102390009C838B838D819E8101979E838D838D810C
:1023A0009E81009769F714C06F81788589859A8529
:1023B0000E944900DC01CB019E838D838D819E812B
:1023C0009A83898389819A810197F1F79A83898316
:1023D000CC59DF4F0FB6F894DEBF0FBECDBFCF9103
:1023E000DF911F910F9108950F931F93DF93CF9368
:1023F000CDB7DEB7C456D0400FB6F894DEBF0FBEDF
:10240000CDBFFE01EC59FF4F808380E063E041E0E7
:102410000E949208FE01E15AFF4F80E090E0A0E8A0
:10242000BFE380839183A283B3838E01055A1F4F3C
:10243000FE01E15AFF4F608171818281938120E02A
:1024400030E04AE755E40E941F02DC01CB01F801AD
:1024500080839183A283B383FE01E55AFF4F60819D
:1024600071818281938120E030E040E85FE30E9447
:102470007903882344F4FE01E75AFF4F81E090E09E
:102480009183808364C0FE01E55AFF4F60817181B2
:102490008281938120E03FEF4FE757E40E941903C8
:1024A00018160CF043C0FE01E15AFF4F60817181A4
:1024B0008281938120E030E040E251E40E941F02DB
:1024C000DC01CB018E01075A1F4FBC01CD010E94D8
:1024D0004900DC01CB01F801918380831FC0FE011C
:1024E000E95AFF4F80E991E091838083FE01E95A28
:1024F000FF4F808191810197F1F7FE01E95AFF4F6B
:1025000091838083DE01A75ABF4FFE01E75AFF4F38
:1025100080819181019711969C938E93FE01E75AD9
:10252000FF4F808191810097D1F627C08E01075A15
:102530001F4FFE01E55AFF4F6081718182819381B7
:102540000E944900DC01CB01F80191838083DE0108
:10255000AB5ABF4FFE01E75AFF4F808191818D93A7
:102560009C93FE01EB5AFF4F808191810197F1F717
:10257000FE01EB5AFF4F9183808380E062E041E0EF
:102580000E949208FE01EF5AFF4F80E090E0A0E821
:10259000BFE380839183A283B3838E01035B1F4FCC
:1025A000FE01EF5AFF4F608171818281938120E0AB
:1025B00030E04AE755E40E941F02DC01CB01F8013C
:1025C00080839183A283B383FE01E35BFF4F60812D
:1025D00071818281938120E030E040E85FE30E94D6
:1025E0007903882344F4FE01E55BFF4F81E090E02E
:1025F0009183808364C0FE01E35BFF4F6081718142
:102600008281938120E03FEF4FE757E40E94190356
:1026100018160CF043C0FE01EF5AFF4F6081718124
:102620008281938120E030E040E251E40E941F0269
:10263000DC01CB018E01055B1F4FBC01CD010E9467
:102640004900DC01CB01F801918380831FC0FE01AA
:10265000E75BFF4F80E991E091838083FE01E75BB8
:10266000FF4F808191810197F1F7FE01E75BFF4FFA
:1026700091838083DE01A55BBF4FFE01E55BFF4FC9
:1026800080819181019711969C938E93FE01E55B69
:10269000FF4F808191810097D1F627C08E01055BA5
:1026A0001F4FFE01E35BFF4F608171818281938147
:1026B0000E944900DC01CB01F80191838083DE0197
:1026C000A95BBF4FFE01E55BFF4F808191818D9338
:1026D0009C93FE01E95BFF4F808191810197F1F7A7
:1026E000FE01E95BFF4F91838083DE01AD59BF4F4F
:1026F000FE01EC59FF4F808182958F708C93FE0113
:10270000ED59FF4F8081982F917081E060E0492F53
:102710000E949208FE01ED59FF4F80818695982F07
:10272000917081E061E0492F0E949208FE01ED590D
:10273000FF4F808186958695982F917081E062E0A9
:10274000492F0E949208FE01ED59FF4F8081869526
:1027500086958695982F917081E064E0492F0E94BC
:102760009208FE01ED5BFF4F80E090E0A0E8BFE340
:1027700080839183A283B3838E01015C1F4FFE018E
:10278000ED5BFF4F608171818281938120E030E0B9
:102790004AE755E40E941F02DC01CB01F801808367
:1027A0009183A283B383FE01FF9660817181828150
:1027B000938120E030E040E85FE30E9479038823C2
:1027C0002CF481E090E09EAF8DAF46C0FE01FF96F5
:1027D000608171818281938120E03FEF4FE757E470
:1027E0000E941903181664F5FE01ED5BFF4F60812E
:1027F00071818281938120E030E040E251E40E94C7
:102800001F02DC01CB01BC01CD010E944900DC01AB
:10281000CB019EAF8DAF0FC080E991E09CAF8BAF35
:102820008BAD9CAD0197F1F79CAF8BAF8DAD9EAD9D
:1028300001979EAF8DAF8DAD9EAD009769F716C025
:10284000FE01FF9660817181828193810E9449001F
:10285000DC01CB019EAF8DAF8DAD9EAD9AAF89AF40
:1028600089AD9AAD0197F1F79AAF89AF80E062E048
:1028700040E00E94920880E090E0A0E8BFE38DABCA
:102880009EABAFABB8AF6DA97EA98FA998AD20E084
:1028900030E04AE755E40E941F02DC01CB0189AB1E
:1028A0009AABABABBCAB69A97AA98BA99CA920E078
:1028B00030E040E85FE30E94790388232CF481E054
:1028C00090E098AB8FA73FC069A97AA98BA99CA972
:1028D00020E03FEF4FE757E40E94190318164CF52C
:1028E0006DA97EA98FA998AD20E030E040E251E4C7
:1028F0000E941F02DC01CB01BC01CD010E944900F6
:10290000DC01CB0198AB8FA70FC080E991E09EA7B7
:102910008DA78DA59EA50197F1F79EA78DA78FA5E1
:1029200098A9019798AB8FA78FA598A9009769F7E9
:1029300014C069A97AA98BA99CA90E944900DC014D
:10294000CB0198AB8FA78FA598A99CA78BA78BA528
:102950009CA50197F1F79CA78BA780E062E041E07E
:102960000E94920880E090E0A0E8BFE38FA398A7C0
:10297000A9A7BAA76FA178A589A59AA520E030E0FC
:102980004AE755E40E941F02DC01CB018BA39CA304
:10299000ADA3BEA36BA17CA18DA19EA120E030E0E0
:1029A00040E85FE30E94790388232CF481E090E003
:1029B0009AA389A33FC06BA17CA18DA19EA120E019
:1029C0003FEF4FE757E40E94190318164CF56FA12B
:1029D00078A589A59AA520E030E040E251E40E9464
:1029E0001F02DC01CB01BC01CD010E944900DC01CA
:1029F000CB019AA389A30FC080E991E098A38F8FA0
:102A00008F8D98A10197F1F798A38F8F89A19AA133
:102A100001979AA389A389A19AA1009769F714C085
:102A20006BA17CA18DA19EA10E944900DC01CB017C
:102A30009AA389A389A19AA19E8F8D8F8D8D9E8D3A
:102A40000197F1F79E8F8D8FDE01AD59BF4FFE01CB
:102A5000EC59FF4F80818F708C93FE01ED59FF4F31
:102A60008081982F917081E060E0492F0E94920848
:102A7000FE01ED59FF4F80818695982F917081E07E
:102A800061E0492F0E949208FE01ED59FF4F8081BD
:102A900086958695982F917081E062E0492F0E947B
:102AA0009208FE01ED59FF4F8081869586958695A7
:102AB000982F917081E064E0492F0E94920880E095
:102AC00090E0A0E8BFE3898F9A8FAB8FBC8F698DB0
:102AD0007A8D8B8D9C8D20E030E04AE755E40E9492
:102AE0001F02DC01CB018D8B9E8BAF8BB88F6D8964
:102AF0007E898F89988D20E030E040E85FE30E9476
:102B0000790388232CF481E090E09C8B8B8B3FC071
:102B10006D897E898F89988D20E03FEF4FE757E4DC
:102B20000E94190318164CF5698D7A8D8B8D9C8D3A
:102B300020E030E040E251E40E941F02DC01CB01C2
:102B4000BC01CD010E944900DC01CB019C8B8B8B29
:102B50000FC080E991E09A8B898B89899A890197C6
:102B6000F1F79A8B898B8B899C8901979C8B8B8B36
:102B70008B899C89009769F714C06D897E898F893C
:102B8000988D0E944900DC01CB019C8B8B8B8B893B
:102B90009C89988B8F878F8598890197F1F7988BFF
:102BA0008F8780E062E040E00E94920880E090E041
:102BB000A0E8BFE38B879C87AD87BE876B857C854C
:102BC0008D859E8520E030E04AE755E40E941F0293
:102BD000DC01CB018F839887A987BA876F817885BD
:102BE00089859A8520E030E040E85FE30E94790320
:102BF00088232CF481E090E09E838D833FC06F8119
:102C0000788589859A8520E03FEF4FE757E40E9459
:102C1000190318164CF56B857C858D859E8520E003
:102C200030E040E251E40E941F02DC01CB01BC0114
:102C3000CD010E944900DC01CB019E838D830FC032
:102C400080E991E09C838B838B819C810197F1F7D4
:102C50009C838B838D819E8101979E838D838D8143
:102C60009E81009769F714C06F81788589859A8560
:102C70000E944900DC01CB019E838D838D819E8162
:102C80009A83898389819A810197F1F79A8389834D
:102C90008091D1008F5F8093D1008091D1008431E9
:102CA00069F48091D0008F5F8093D0001092D100A2
:102CB0008091D000843111F41092D000CC59DF4FB4
:102CC0000FB6F894DEBF0FBECDBFCF91DF911F913D
:102CD0000F910895DF93CF9300D00F92CDB7DEB759
:102CE0009B838A8319820EC08981282F30E08A81D4
:102CF0009B81FC01E20FF31F80810E94F411898106
:102D00008F5F89838981282F30E08A819B81FC0134
:102D1000E20FF31F8081882339F70F900F900F90F7
:102D2000CF91DF910895DF93CF9300D000D00F9221
:102D3000CDB7DEB78A836B838A81282F30E03D834D
:102D40002C838C819D8181309105E9F02C813D811E
:102D5000223031052CF48C819D81009761F030C0C8
:102D60002C813D8122303105C1F08C819D818330E1
:102D70009105E9F025C08B8189838B818093D100F7
:102D80001092D0001DC08B81805C89838B818093E1
:102D9000D10081E08093D00013C08B818C5E898349
:102DA0008B818093D10082E08093D00009C08B8119
:102DB0008C5A89838B818093D10083E08093D000EB
:102DC000898180680E94940D0F900F900F900F9052
:102DD0000F90CF91DF910895DF93CF9300D000D073
:102DE000CDB7DEB79A8389836B834C838B816C81EB
:102DF0000E94931689819A810E946A160F900F9003
:102E00000F900F90CF91DF910895DF93CF93CDB7BF
:102E1000DEB71092D1001092D00081E00E94940D94
:102E2000CF91DF910895DF93CF93CDB7DEB7809137
:102E3000D100833189F48091D000882369F4109205
:102E4000D10081E08093D0008091D0009091D1009A
:102E5000692F0E94931646C08091D100833189F476
:102E60008091D000813069F41092D10082E080938B
:102E7000D0008091D0009091D100692F0E949316CC
:102E800031C08091D100833189F48091D0008230AB
:102E900069F41092D10083E08093D0008091D0003B
:102EA0009091D100692F0E9493161CC08091D1008F
:102EB000833181F48091D000833061F41092D1008D
:102EC0001092D0008091D0009091D100692F0E9483
:102ED000931608C084E10E94940D8091D1008F5F09
:102EE0008093D100CF91DF910895DF93CF93CDB739
:102EF000DEB78091D100882391F48091D00088239F
:102F000071F483E18093D10083E08093D0008091BD
:102F1000D0009091D100692F0E94931649C08091F2
:102F2000D100882389F48091D000813069F483E155
:102F30008093D1001092D0008091D0009091D10068
:102F4000692F0E94931634C08091D100882391F498
:102F50008091D000823071F483E18093D10081E0D0
:102F60008093D0008091D0009091D100692F0E9471
:102F700093161EC08091D100882391F48091D000D7
:102F8000833071F483E18093D10082E08093D0009C
:102F90008091D0009091D100692F0E94931608C0B3
:102FA00080E10E94940D8091D10081508093D100E6
:102FB000CF91DF910895DF93CF93CDB7DEB78CE14A
:102FC0000E94940DCF91DF910895DF93CF93CDB7F9
:102FD000DEB788E10E94940DCF91DF910895DF93D1
:102FE000CF9300D000D0CDB7DEB79B838A836C83AC
:102FF0008C81882F90E00896880F991F880F991F61
:10300000880F991F0E94940D19820EC08981282F64
:1030100030E08A819B81FC01E20FF31F80810E94D6
:10302000F41189818F5F89838981883078F30F90CB
:103030000F900F900F90CF91DF910895DF93CF9372
:103040000F92CDB7DEB7898389810E94F4110F906A
:10305000CF91DF910895DF93CF9300D00F92CDB73A
:10306000DEB789836A834B838A816B810E949316C2
:1030700089810E94F4110F900F900F90CF91DF91F2
:103080000895DF93CF93CDB7DEB765970FB6F89469
:10309000DEBF0FBECDBF6A8B7B8B8C8B9D8B8A89ED
:1030A0009B899E012F5F3F4FB9014AE050E00E948B
:1030B000EF1CCE0101960E946A1665960FB6F89431
:1030C000DEBF0FBECDBFCF91DF910895DF93CF93C9
:1030D000CDB7DEB782E066E042E00E940906CF91FC
:1030E000DF910895DF93CF93CDB7DEB782E066E03E
:1030F00041E00E949208CF91DF910895DF93CF9332
:10310000CDB7DEB782E066E040E00E949208CF9142
:10311000DF910895DF93CF93CDB7DEB782E066E00D
:103120000E948C09CF91DF910895DF93CF93CDB7A3
:10313000DEB72E970FB6F894DEBF0FBECDBF82E08C
:1031400066E041E00E94920880E090E0A8ECB2E4E2
:103150008B879C87AD87BE876B857C858D859E859B
:1031600020E030E04AE753E40E941F02DC01CB017B
:103170008F839887A987BA876F81788589859A8593
:1031800020E030E040E85FE30E94790388232CF4DC
:1031900081E090E09E838D833FC06F817885898533
:1031A0009A8520E03FEF4FE757E40E941903181675
:1031B0004CF56B857C858D859E8520E030E040E276
:1031C00051E40E941F02DC01CB01BC01CD010E9431
:1031D0004900DC01CB019E838D830FC089E190E023
:1031E0009C838B838B819C810197F1F79C838B83DC
:1031F0008D819E8101979E838D838D819E81009715
:1032000069F714C06F81788589859A850E94490085
:10321000DC01CB019E838D838D819E819A8389837E
:1032200089819A810197F1F79A83898382E066E028
:1032300040E00E9492082E960FB6F894DEBF0FBEB3
:10324000CDBFCF91DF910895DF93CF93CDB7DEB798
:10325000AA970FB6F894DEBF0FBECDBF82E066E03E
:1032600041E00E94920880E090E0A8ECB2E48FA3D5
:1032700098A7A9A7BAA76FA178A589A59AA520E0C4
:1032800030E04AE753E40E941F02DC01CB018BA32C
:103290009CA3ADA3BEA36BA17CA18DA19EA120E0A8
:1032A00030E040E85FE30E94790388232CF481E05A
:1032B00090E09AA389A33FC06BA17CA18DA19EA1A0
:1032C00020E03FEF4FE757E40E94190318164CF532
:1032D0006FA178A589A59AA520E030E040E251E4ED
:1032E0000E941F02DC01CB01BC01CD010E944900FC
:1032F000DC01CB019AA389A30FC089E190E098A3D8
:103300008F8F8F8D98A10197F1F798A38F8F89A147
:103310009AA101979AA389A389A19AA1009769F715
:1033200014C06BA17CA18DA19EA10E944900DC016B
:10333000CB019AA389A389A19AA19E8F8D8F8D8D90
:103340009E8D0197F1F79E8F8D8F82E066E040E0C1
:103350000E94920880E090E0A0E7B2E4898F9A8F03
:10336000AB8FBC8F698D7A8D8B8D9C8D20E030E08A
:103370004AE753E40E941F02DC01CB018D8B9E8B38
:10338000AF8BB88F6D897E898F89988D20E030E072
:1033900040E85FE30E94790388232CF481E090E009
:1033A0009C8B8B8B3FC06D897E898F89988D20E0A7
:1033B0003FEF4FE757E40E94190318164CF5698D4B
:1033C0007A8D8B8D9C8D20E030E040E251E40E94AC
:1033D0001F02DC01CB01BC01CD010E944900DC01D0
:1033E000CB019C8B8B8B0FC089E190E09A8B898BF2
:1033F00089899A890197F1F79A8B898B8B899C89A6
:1034000001979C8B8B8B8B899C89009769F714C0E3
:103410006D897E898F89988D0E944900DC01CB01DE
:103420009C8B8B8B8B899C89988B8F878F859889B8
:103430000197F1F7988B8F8782E066E041E00E9468
:10344000920880E090E0A8ECB2E48B879C87AD877F
:10345000BE876B857C858D859E8520E030E04AE7C0
:1034600053E40E941F02DC01CB018F839887A98758
:10347000BA876F81788589859A8520E030E040E8B9
:103480005FE30E94790388232CF481E090E09E831F
:103490008D833FC06F81788589859A8520E03FEFD5
:1034A0004FE757E40E94190318164CF56B857C858D
:1034B0008D859E8520E030E040E251E40E941F02AD
:1034C000DC01CB01BC01CD010E944900DC01CB0134
:1034D0009E838D830FC089E190E09C838B838B81D9
:1034E0009C810197F1F79C838B838D819E8101974D
:1034F0009E838D838D819E81009769F714C06F81B3
:10350000788589859A850E944900DC01CB019E83DC
:103510008D838D819E819A83898389819A81019788
:10352000F1F79A83898382E066E040E00E94920886
:10353000AA960FB6F894DEBF0FBECDBFCF91DF9134
:103540000895DF93CF9300D00F92CDB7DEB7898374
:103550006A834B8389816A814B810E9409060F909F
:103560000F900F90CF91DF910895DF93CF9300D00C
:10357000CDB7DEB789836A8389816A810E94F707A4
:103580000F900F90CF91DF910895DF93CF93CDB738
:10359000DEB781E067E042E00E94090680E064E077
:1035A00042E00E94090680E065E042E00E940906D0
:1035B00080E066E042E00E94090683E067E040E0C8
:1035C0000E94A11A83E063E040E00E94A11A83E018
:1035D00065E040E00E94A11A83E066E040E00E94BE
:1035E000A11A0E94630DCF91DF910895DF93CF93CD
:1035F00000D00F92CDB7DEB783E067E00E94B51A26
:1036000089838981882351F48091D200882341F4F1
:1036100081E08093D2000E94951802C01092D200DF
:103620008981282F30E03B832A838A819B81009700
:1036300031F02A813B812130310539F00CC080E026
:1036400065E041E00E94130D0BC080E065E040E0C2
:103650000E94130D05C080E065E040E00E94130D5C
:103660000F900F900F90CF91DF910895DF93CF933C
:1036700000D00F92CDB7DEB783E066E00E94B51AA6
:1036800089838981882351F48091D300882341F470
:1036900081E08093D3000E94951802C01092D3005D
:1036A0008981282F30E03B832A838A819B81009780
:1036B00031F02A813B812130310559F014C081E07D
:1036C00067E041E00E94130D83E066E00E94891CE0
:1036D0000FC081E067E040E00E94130D83E066E0E8
:1036E0000E94891C05C081E067E040E00E94130D44
:1036F0000F900F900F90CF91DF910895DF93CF93AC
:10370000CDB7DEB780E060E00E94931680E690E0DF
:103710000E946A1681E060E00E9493168BE690E0BA
:103720000E946A1682E060E00E9493168CE790E0A7
:103730000E946A16CF91DF910895DF93CF93CDB7A2
:10374000DEB783E060E00E94931685E890E00E9477
:103750006A16CF91DF910895DF93CF9300D00F9237
:10376000CDB7DEB783E063E00E94B51A8983898113
:103770008823C9F48091D4008823B9F481E0809330
:10378000D40083E063E00E94891C8091C8008430EB
:1037900030F48091C8008F5F8093C80006C081E03C
:1037A0008093C80002C01092D4008091C800282FD6
:1037B00030E03B832A838A819B818230910531F1FD
:1037C0002A813B8123303105B1F18A819B8181308F
:1037D000910509F043C00E94F61A0E94361B0E9410
:1037E000371C81E06FE00E94931681E990E00E940F
:1037F0006A1683E063E00E94891C83E060E00E9417
:10380000931684E990E00E946A162BC00E94F61A73
:103810000E94361B0E94371C81E06FE00E949316C5
:103820008FE990E00E946A160E949D1B83E063E08E
:103830000E94891C16C00E94F61A0E94361B81E065
:103840006FE00E94931682EA90E00E946A160E943E
:103850009D1B83E063E00E94891C03C081E080938C
:10386000C8000F900F900F90CF91DF910895DF93D4
:10387000CF9300D00F92CDB7DEB783E065E00E9412
:10388000B51A898389818823C1F48091D500882362
:10389000B1F483E065E00E94891C81E08093D5004B
:1038A0008091D600823030F48091D6008F5F809373
:1038B000D60005C01092D60002C01092D5008091AB
:1038C000D600282F30E03B832A838A819B81009792
:1038D00031F02A813B812130310551F012C080E066
:1038E00067E00E94931685EA90E00E946A160BC07A
:1038F00080E067E00E94931689EA90E00E946A16D1
:1039000002C01092D6000F900F900F90CF91DF91D0
:103910000895DF93CF9300D00F92CDB7DEB78A839F
:103920006B838A816B810E94B51A89838981882380
:1039300051F48091D700882341F481E08093D7002F
:103940000E94951802C01092D7000F900F900F9010
:10395000CF91DF910895DF93CF93CDB7DEB70E946B
:10396000C51A0E947E1B0E9466180E94AC1BFDCFE8
:103970002F923F924F925F926F927F928F929F927F
:10398000AF92BF92CF92DF92EF92FF920F931F936D
:10399000CF93DF93CDB7DEB7CA1BDB0B0FB6F8941E
:1039A000DEBF0FBECDBF09942A88398848885F845E
:1039B0006E847D848C849B84AA84B984C884DF80CF
:1039C000EE80FD800C811B81AA81B981CE0FD11DB3
:1039D0000FB6F894DEBF0FBECDBFED010895FB0119
:1039E0009F01E8944230C4F04532B4F44A3029F4DF
:1039F00097FB1EF4909581959F4F642F77270E9427
:103A0000201D805D8A330CF0895D8193CB01009786
:103A1000A1F716F45DE251931082C9010C94101DB8
:103A2000DC01FC01672F71917723E1F7329704C025
:103A30007C916D9370836291AE17BF07C8F30895B0
:103A4000AA1BBB1B51E107C0AA1FBB1FA617B707C4
:103A500010F0A61BB70B881F991F5A95A9F78095E0
:0C3A60009095BC01CD010895F894FFCFB3
:103A6C0041434353203A204F46460047656172203C
:103A7C0028522C4E2C4429203A2020005370656586
:103A8C0064203A200044697374616E6365203A20A7
:103A9C0000204E002020202020202020202000204C
:103AAC0044002052004F4646004F4E2000000000BC
:103ABC0000000000000308FF00000A1F1F0E040096
:0A3ACC000E1111111F1F1F00010051
:00000001FF
