:100000000C942A000C94060D0C94390D0C946C0D74
:100010000C9447000C9447000C9447000C94470044
:100020000C9447000C9447000C9447000C94470034
:100030000C9447000C9447000C9447000C94470024
:100040000C9447000C9447000C9447000C94470014
:100050000C94470011241FBECFE5D4E0DEBFCDBF16
:1000600012E0A0E6B0E0E4E1F3E402C005900D92F6
:10007000A430B107D9F712E0A4E0B2E001C01D92AC
:10008000AF31B107E1F70E94F1200C9488210C9464
:100090000000EF92FF920F931F937B018C0120E0F1
:1000A00030E040E05FE40E94F50388238CF0C80153
:1000B000B70120E030E040E05FE40E94C1010E940F
:1000C00055049B01AC01205030404040504806C0D0
:1000D000C801B7010E9455049B01AC01B901CA01D6
:1000E0001F910F91FF90EF900895A0E0B0E0EBE733
:1000F000F0E00C940C21DC012B01FA019C91923070
:1001000008F439C1EB018881823008F433C194309E
:1001100069F4843009F02FC111969C91119789815F
:10012000981709F428C1A1EEB0E025C1843009F484
:1001300021C18230A9F4923009F01DC19A01AD01AC
:1001400088E0EA010990AE01E90109929E0181501F
:10015000C1F7E201898111969C918923818308C1AD
:10016000923009F407C112962D903C901397EB0141
:100170008A819B811496AD90BD90CD90DC901797AD
:10018000EC80FD800E811F819101281B390BB90184
:1001900037FF04C066277727621B730B6032710537
:1001A0000CF061C0121613066CF537014801062EDB
:1001B00004C096948794779467940A94D2F721E0C8
:1001C00030E040E050E004C0220F331F441F551FB1
:1001D0006A95D2F721503040404050402E213F21B7
:1001E00040235123211531054105510521F021E01E
:1001F00030E040E050E079018A01E628F72808293C
:1002000019293CC0232BD1F1260E371E350146019A
:10021000062E04C096948794779467940A94D2F734
:1002200021E030E040E050E004C0220F331F441FC3
:10023000551F6A95D2F721503040404050402A2146
:100240003B214C215D21211531054105510521F04E
:1002500021E030E040E050E059016A01A628B728CB
:10026000C828D9280BC0821593052CF01C01AA249C
:10027000BB24650103C0EE24FF24870111969C91E5
:10028000D20111968C91981709F445C0992339F041
:10029000A80197012A193B094C095D0906C0A6016E
:1002A00095012E193F09400B510B57FD08C01182D3
:1002B0003382228224833583468357831DC081E0A5
:1002C00081833382228288279927DC01821B930B4A
:1002D000A40BB50B84839583A683B7830DC0220F2F
:1002E000331F441F551F24833583468357838281E0
:1002F000938101979383828324813581468157813D
:10030000DA01C9010197A109B1098F5F9F4FAF4F72
:10031000BF4328F30BC0918333822282EA0CFB1C7B
:100320000C1D1D1DE482F5820683178383E0808304
:10033000248135814681578157FF1AC0C901AA27F8
:1003400097FDA095BA2F81709070A070B0705695EF
:10035000479537952795822B932BA42BB52B848318
:100360009583A683B7838281938101969383828349
:10037000DF0101C0D201CD01CDB7DEB7E2E10C94BF
:100380002821A0E2B0E0E7ECF1E00C9418216983A9
:100390007A838B839C832D833E834F835887E9E048
:1003A000EE2EF12CEC0EFD1ECE010196B7010E943F
:1003B00046068E010F5E1F4FCE010596B8010E94C2
:1003C00046068A8991E089278A8BC701B801AE0168
:1003D000475E5F4F0E9475000E947105A096E6E09F
:1003E0000C943421A0E2B0E0E8EFF1E00C94182185
:1003F00069837A838B839C832D833E834F835887C5
:10040000F9E0EF2EF12CEC0EFD1ECE010196B701A6
:100410000E9446068E010F5E1F4FCE010596B80161
:100420000E944606C701B801AE01475E5F4F0E94B9
:1004300075000E947105A096E6E00C943421A0E2BC
:10044000B0E0E5E2F2E00C940C2169837A838B83BF
:100450009C832D833E834F835887CE010196BE0136
:10046000675F7F4F0E944606CE010596BE016F5E14
:100470007F4F0E9446069985923088F089898230A4
:10048000C8F0943019F4823051F404C0843029F457
:10049000923081F481EE90E0C6C0923049F420E0C1
:1004A0009A858A89981321E02A87CE010996BBC0D4
:1004B000823049F420E09A858A89981321E02A8BBA
:1004C000CE014196B0C02D843E844F8458886D88FB
:1004D0007E888F88988CEE24FF248701AA24BB2471
:1004E000650140E050E060E070E0E0E0F0E0C10174
:1004F00081709070892BE9F0E60CF71C081D191D1E
:100500009A01AB012A0D3B1D4C1D5D1D80E090E062
:10051000A0E0B0E0E614F7040805190520F481E036
:1005200090E0A0E0B0E0BA01A901480F591F6A1F8E
:100530007B1FAA0CBB1CCC1CDD1C97FE08C081E0F5
:1005400090E0A0E0B0E0A82AB92ACA2ADB2A3196B6
:10055000E032F10549F0660C771C881C991C569412
:10056000479437942794C3CFFA85EA892B893C892D
:100570008B859C85280F391F2E5F3F4F17C0CA01FE
:1005800081709070892B61F016950795F794E79428
:1005900080E090E0A0E0B0E8E82AF92A0A2B1B2BC3
:1005A00076956795579547952F5F3F4F77FDE7CF36
:1005B0000CC0440F551F661F771F17FD4160EE0CDE
:1005C000FF1C001F111F21503040403090E05907A0
:1005D00090E0690790E4790760F32B8F3C8FDB0193
:1005E000CA018F779070A070B07080349105A1051A
:1005F000B10561F447FD0AC0E114F10401051105DC
:1006000029F0405C5F4F6F4F7F4F40781A8EFE1786
:1006100011F081E08A8F4D8F5E8F6F8F78A383E01A
:10062000898FCE0149960E947105A096E2E10C9453
:100630002821A8E1B0E0EFE1F3E00C9414216983F4
:100640007A838B839C832D833E834F835887B9E0C5
:10065000EB2EF12CEC0EFD1ECE010196B7010E948F
:1006600046068E010F5E1F4FCE010596B8010E940F
:1006700046062985223008F47EC03989323010F4CC
:10068000B8017CC08A859A8989278A87243011F02D
:10069000223031F4231709F06EC061EE70E06EC0B5
:1006A000343039F41D861E861F86188A1C861B86E8
:1006B00004C0323021F484E08987B7015FC02B8504
:1006C0003C858B899C89281B390B3C872B87ED84C3
:1006D000FE840F851889AD88BE88CF88D88CEA142F
:1006E000FB040C051D0540F4EE0CFF1C001F111F40
:1006F000215030403C872B8720E030E040E050E044
:1007000080E090E0A0E0B0E460E070E0EA14FB0478
:100710000C051D0540F0282B392B4A2B5B2BEA18C2
:10072000FB080C091D09B695A79597958795EE0CC2
:10073000FF1C001F111F6F5F7F4F6F31710531F775
:10074000DA01C9018F779070A070B0708034910584
:10075000A105B10561F427FD0AC0E114F10401050A
:10076000110529F0205C3F4F4F4F5F4F20782D87B8
:100770003E874F87588BBE01675F7F4FCB010E943A
:1007800071056896EAE00C943021A8E1B0E0EBEC4A
:10079000F3E00C94182169837A838B839C832D83E7
:1007A0003E834F83588789E0E82EF12CEC0EFD1E26
:1007B000CE010196B7010E9446068E010F5E1F4FC3
:1007C000CE010596B8010E9446068985823040F028
:1007D0008989823028F0C701B8010E94BE0601C095
:1007E0008FEF6896E6E00C943421A8E1B0E0EBEFDF
:1007F000F3E00C94182169837A838B839C832D8387
:100800003E834F83588789E0E82EF12CEC0EFD1EC5
:10081000CE010196B7010E9446068E010F5E1F4F62
:10082000CE010596B8010E9446068985823040F0C7
:100830008989823028F0C701B8010E94BE0601C034
:100840008FEF6896E6E00C943421A8E1B0E0EBE28B
:10085000F4E00C94182169837A838B839C832D8325
:100860003E834F83588789E0E82EF12CEC0EFD1E65
:10087000CE010196B7010E9446068E010F5E1F4F02
:10088000CE010596B8010E9446068985823040F067
:100890008989823028F0C701B8010E94BE0601C0D4
:1008A00081E06896E6E00C943421ACE0B0E0EBE542
:1008B000F4E00C941C2169837A838B839C83CE01A2
:1008C0000196BE016B5F7F4F0E9446068D8182308C
:1008D00061F1823050F1843021F48E81882351F10E
:1008E0002EC02F81388537FD20C06E812F31310514
:1008F0001CF06623F9F023C08EE190E0821B930B7D
:1009000029853A854B855C8504C056954795379572
:1009100027958A95D2F76623B1F05095409530958A
:1009200021953F4F4F4F5F4F0EC020E030E040E039
:1009300050E009C02FEF3FEF4FEF5FE704C020E02A
:1009400030E040E050E8B901CA012C96E2E00C9496
:100950003821A8E0B0E0EFEAF4E00C9414217B0128
:100960008C01611571058105910519F482E0898377
:1009700060C083E089838EE1C82ED12CDC82CB82DB
:10098000ED82FE820F831887C801B7010E942205FD
:10099000FC013197F7FF3BC0222733272E1B3F0B6B
:1009A00057016801022E04C0D694C794B794A79447
:1009B0000A94D2F740E050E060E070E081E090E01F
:1009C000A0E0B0E004C0880F991FAA1FBB1F2A95A2
:1009D000D2F70197A109B1098E219F21A023B1234C
:1009E0000097A105B10521F041E050E060E070E022
:1009F0004A295B296C297D294D835E836F83788723
:100A00008EE190E08E1B9F0B9C838B8312C03097EE
:100A100081F00E2E04C0EE0CFF1C001F111F0A9463
:100A2000D2F7ED82FE820F831887CE1ADF0ADC82AE
:100A3000CB821A82CE0101960E9471052896EAE0C7
:100A40000C943021EF92FF920F931F937B018C0146
:100A500080E0E81680E0F80681E0080780E01807EB
:100A600088F48FEFE816F1040105110531F028F044
:100A700088E090E0A0E0B0E017C080E090E0A0E067
:100A8000B0E012C080E0E81680E0F80680E00807D9
:100A900081E0180728F088E190E0A0E0B0E004C011
:100AA00080E190E0A0E0B0E020E230E040E050E003
:100AB000281B390B4A0B5B0B04C016950795F7945E
:100AC000E7948A95D2F7F701E751FF4F8081281B01
:100AD000310941095109C9011F910F91FF90EF9010
:100AE0000895DF92EF92FF920F931F93FC01E48031
:100AF000F58006811781D1808081823048F480E0C2
:100B000090E0A0E1B0E0E82AF92A0A2B1B2BA5C04F
:100B1000843009F49FC0823021F4EE24FF24870141
:100B200005C0E114F1040105110519F4E0E0F0E05D
:100B300096C0628173819FEF623879070CF05BC0C9
:100B400022E83FEF261B370B2A3131052CF020E03D
:100B500030E040E050E02AC0B801A701022E04C0F6
:100B600076956795579547950A94D2F781E090E07E
:100B7000A0E0B0E004C0880F991FAA1FBB1F2A95F0
:100B8000D2F70197A109B1098E219F21A023B1239A
:100B90000097A105B10521F081E090E0A0E0B0E070
:100BA0009A01AB01282B392B4A2B5B2BDA01C901A7
:100BB0008F779070A070B07080349105A105B10559
:100BC00039F427FF09C0205C3F4F4F4F5F4F04C0EF
:100BD000215C3F4F4F4F5F4FE0E0F0E02030A0E05E
:100BE0003A07A0E04A07A0E45A0710F0E1E0F0E07D
:100BF00079018A0127C06038710564F5FB01E1586D
:100C0000FF4FD801C7018F779070A070B07080340B
:100C10009105A105B10539F4E7FE0DC080E490E02F
:100C2000A0E0B0E004C08FE390E0A0E0B0E0E80E08
:100C3000F91E0A1F1B1F17FF05C016950795F7948D
:100C4000E794319687E016950795F794E7948A958F
:100C5000D1F705C0EE24FF248701EFEFF0E06E2FFF
:100C6000679566276795902F9F77D794DD24D79453
:100C70008E2F8695492F462B582F5D29B701CA0123
:100C80001F910F91FF90EF90DF900895FC01DB0121
:100C9000408151812281622F6F7770E0221F2227CD
:100CA000221F9381892F880F822B282F30E0991FD4
:100CB0009927991F11969C93119721153105A9F534
:100CC000411551056105710511F482E037C082E8D4
:100CD0009FEF13969C938E9312979A01AB0167E056
:100CE000220F331F441F551F6A95D1F783E08C9361
:100CF0000DC0220F331F441F551F12968D919C91DA
:100D00001397019713969C938E931297203080E04F
:100D1000380780E0480780E4580758F314962D936D
:100D20003D934D935C93179708952F3F310579F4C8
:100D3000411551056105710519F484E08C930895FE
:100D400064FF03C081E08C9312C01C9210C02F5727
:100D5000304013963C932E93129783E08C9387E058
:100D6000440F551F661F771F8A95D1F7706414963C
:100D70004D935D936D937C93179708951F93DC01BA
:100D8000FB019C91923008F447C08081823008F4C6
:100D900043C0943051F411961C91843099F58181AF
:100DA000682F70E0611B71093FC0843021F09230E0
:100DB00031F48230B9F18181882389F12DC01196F7
:100DC0001C9111978230F1F081811817D9F4129695
:100DD0002D913C911397828193818217930794F010
:100DE00028173907BCF014968D919D910D90BC91F8
:100DF000A02D2481358146815781281739074A075C
:100E00005B0718F4112341F00AC082179307A40767
:100E1000B50740F4112319F061E070E005C06FEFF1
:100E20007FEF02C060E070E0CB011F910895DF9377
:100E3000CF930F92CDB7DEB7198257C08981282F83
:100E400030E0C901880F991F820F931FFC01E65102
:100E5000FE4F80818830E9F48981282F30E0C90174
:100E6000880F991F820F931FFC01E751FE4F4081AD
:100E70008981282F30E0C901880F991F820F931FA5
:100E8000FC01E551FE4F9081842F692F0E94850B54
:100E900029C08981282F30E0C901880F991F820F4E
:100EA000931FFC01E751FE4F50818981282F30E0CC
:100EB000C901880F991F820F931FFC01E651FE4F55
:100EC00040818981282F30E0C901880F991F820F46
:100ED000931FFC01E551FE4F9081852F642F492F10
:100EE0000E947D0789818F5F89838981882309F426
:100EF000A5CF0F90CF91DF910895DF93CF9300D0CE
:100F000000D00F92CDB7DEB789836A834B83898186
:100F1000843008F0D8C18A81883008F0D4C1898132
:100F2000282F30E03D832C838C819D818130910579
:100F300009F484C02C813D81223031052CF48C8150
:100F40009D81009771F0BFC12C813D812230310518
:100F500009F4E1C08C819D818330910509F448C179
:100F6000B2C18B81882341F5AAE3B0E0EAE3F0E067
:100F70008081482F8A81282F30E081E090E002C0F4
:100F8000880F991F2A95E2F7809584238C93ABE311
:100F9000B0E0EBE3F0E08081482F8A81282F30E039
:100FA00081E090E0022E02C0880F991F0A94E2F7B8
:100FB000809584238C9387C18B81813039F5AAE396
:100FC000B0E0EAE3F0E08081482F8A81282F30E00A
:100FD00081E090E002C0880F991F2A95E2F7809582
:100FE00084238C93ABE3B0E0EBE3F0E08081482F07
:100FF0008A81282F30E081E090E0022E02C0880F25
:10100000991F0A94E2F7842B8C935DC18B81823007
:1010100009F059C1AAE3B0E0EAE3F0E08081482F8B
:101020008A81282F30E081E090E0022E02C0880FF4
:10103000991F0A94E2F7842B8C9345C18B818823F6
:1010400041F5A7E3B0E0E7E3F0E08081482F8A8133
:10105000282F30E081E090E002C0880F991F2A9588
:10106000E2F7809584238C93A8E3B0E0E8E3F0E016
:101070008081482F8A81282F30E081E090E0022E85
:1010800002C0880F991F0A94E2F7809584238C93FD
:101090001AC18B81813039F5A7E3B0E0E7E3F0E0D6
:1010A0008081482F8A81282F30E081E090E002C0C3
:1010B000880F991F2A95E2F7809584238C93A8E3E3
:1010C000B0E0E8E3F0E08081482F8A81282F30E00B
:1010D00081E090E0022E02C0880F991F0A94E2F787
:1010E000842B8C93F0C08B81823009F0ECC0A7E395
:1010F000B0E0E7E3F0E08081482F8A81282F30E0DC
:1011000081E090E0022E02C0880F991F0A94E2F756
:10111000842B8C93D8C08B81882341F5A4E3B0E065
:10112000E4E3F0E08081482F8A81282F30E081E0DD
:1011300090E002C0880F991F2A95E2F780958423DA
:101140008C93A5E3B0E0E5E3F0E08081482F8A814D
:10115000282F30E081E090E0022E02C0880F991F16
:101160000A94E2F7809584238C93ADC08B81813003
:1011700039F5A4E3B0E0E4E3F0E08081482F8A8110
:10118000282F30E081E090E002C0880F991F2A9557
:10119000E2F7809584238C93A5E3B0E0E5E3F0E0EB
:1011A0008081482F8A81282F30E081E090E0022E54
:1011B00002C0880F991F0A94E2F7842B8C9383C096
:1011C0008B81823009F07FC0A4E3B0E0E4E3F0E07B
:1011D0008081482F8A81282F30E081E090E0022E24
:1011E00002C0880F991F0A94E2F7842B8C936BC07E
:1011F0008B81882341F5A1E3B0E0E1E3F0E0808159
:10120000482F8A81282F30E081E090E002C0880FCB
:10121000991F2A95E2F7809584238C93A2E3B0E08E
:10122000E2E3F0E08081482F8A81282F30E081E0DE
:1012300090E0022E02C0880F991F0A94E2F7809571
:1012400084238C9340C08B81813039F5A1E3B0E0D9
:10125000E1E3F0E08081482F8A81282F30E081E0AF
:1012600090E002C0880F991F2A95E2F780958423A9
:101270008C93A2E3B0E0E2E3F0E08081482F8A8122
:10128000282F30E081E090E0022E02C0880F991FE5
:101290000A94E2F7842B8C9316C08B81823099F4E8
:1012A000A1E3B0E0E1E3F0E08081482F8A81282FBC
:1012B00030E081E090E0022E02C0880F991F0A946E
:1012C000E2F7842B8C930F900F900F900F900F905C
:1012D000CF91DF910895DF93CF9300D000D00F928C
:1012E000CDB7DEB78A836B8319828A81843008F098
:1012F00084C08B81883008F080C08A81282F30E03C
:101300003D832C834C815D814130510579F18C8185
:101310009D818230910534F42C813D812115310568
:1013200069F06BC04C815D8142305105B9F18C810F
:101330009D818330910509F449C05FC0E9E3F0E085
:101340008081282F30E08B81882F90E0A90102C096
:10135000559547958A95E2F7CA0181709070882368
:1013600019F081E0898349C0198247C0E6E3F0E0C3
:101370008081282F30E08B81882F90E0A90102C066
:10138000559547958A95E2F7CA0181709070882338
:1013900019F081E0898331C019822FC0E3E3F0E0C6
:1013A0008081282F30E08B81882F90E0A90102C036
:1013B000559547958A95E2F7CA0181709070882308
:1013C00019F081E0898319C0198217C0E0E3F0E0C9
:1013D0008081282F30E08B81882F90E0A90102C006
:1013E000559547958A95E2F7CA01817090708823D8
:1013F00019F081E0898301C0198289810F900F90D3
:101400000F900F900F90CF91DF910895DF93CF93BE
:1014100000D000D00F92CDB7DEB789836A834B83AB
:101420008981843008F0E4C08A81883008F0E0C007
:101430008981282F30E03D832C838C819D818130F0
:10144000910509F447C02C813D81223031052CF4EF
:101450008C819D81009771F0CBC02C813D81223021
:10146000310509F467C08C819D818330910509F4B1
:1014700091C0BEC08B818130A1F4ABE3B0E0EBE35F
:10148000F0E08081482F8A81282F30E081E090E0D1
:10149000022E02C0880F991F0A94E2F7842B8C93C6
:1014A000A7C08B81882309F0A3C0ABE3B0E0EBE3D6
:1014B000F0E08081482F8A81282F30E081E090E0A1
:1014C000022E02C0880F991F0A94E2F780958423A8
:1014D0008C938EC08B818130A1F4A8E3B0E0E8E367
:1014E000F0E08081482F8A81282F30E081E090E071
:1014F000022E02C0880F991F0A94E2F7842B8C9366
:1015000077C08B81882309F073C0A8E3B0E0E8E3DB
:10151000F0E08081482F8A81282F30E081E090E040
:10152000022E02C0880F991F0A94E2F78095842347
:101530008C935EC08B818130A1F4A5E3B0E0E5E33C
:10154000F0E08081482F8A81282F30E081E090E010
:10155000022E02C0880F991F0A94E2F7842B8C9305
:1015600047C08B81882309F043C0A5E3B0E0E5E3E1
:10157000F0E08081482F8A81282F30E081E090E0E0
:10158000022E02C0880F991F0A94E2F780958423E7
:101590008C932EC08B818130A1F4A2E3B0E0E2E312
:1015A000F0E08081482F8A81282F30E081E090E0B0
:1015B000022E02C0880F991F0A94E2F7842B8C93A5
:1015C00017C08B818823A1F4A2E3B0E0E2E3F0E04E
:1015D0008081482F8A81282F30E081E090E0022E20
:1015E00002C0880F991F0A94E2F7809584238C9398
:1015F0000F900F900F900F900F90CF91DF91089563
:10160000DF93CF9300D000D0CDB7DEB789836A8354
:101610008981843008F072C08A81883008F06EC0F9
:101620008981282F30E03C832B838B819C81813002
:10163000910549F12B813C81223031052CF48B81BD
:101640009C81009761F05AC02B813C81223031058A
:1016500071F18B819C8183309105E9F14FC0ABE33F
:10166000B0E0EBE3F0E08081482F8A81282F30E062
:1016700081E090E0022E02C0880F991F0A94E2F7E1
:1016800084278C933BC0A8E3B0E0E8E3F0E08081DE
:10169000482F8A81282F30E081E090E0022E02C09E
:1016A000880F991F0A94E2F784278C9327C0A5E33B
:1016B000B0E0E5E3F0E08081482F8A81282F30E018
:1016C00081E090E0022E02C0880F991F0A94E2F791
:1016D00084278C9313C0A2E3B0E0E2E3F0E08081C2
:1016E000482F8A81282F30E081E090E0022E02C04E
:1016F000880F991F0A94E2F784278C930F900F901C
:101700000F900F90CF91DF910895DF93CF9300D08A
:1017100000D0CDB7DEB789836A838981843008F031
:1017200096C08981282F30E03C832B838B819C815C
:1017300081309105A9F12B813C81223031052CF4B7
:101740008B819C81009771F082C02B813C8122307B
:10175000310509F443C08B819C818330910509F4E4
:101760005AC075C08A81882339F4EAE3F0E0108218
:10177000EBE3F0E010826BC08A81813041F4EAE350
:10178000F0E01082EBE3F0E08FEF808360C08A81AD
:101790008F3F09F05CC0EAE3F0E08FEF808357C031
:1017A0008A81882339F4E7E3F0E01082E8E3F0E08F
:1017B00010824DC08A81813041F4E7E3F0E010826D
:1017C000E8E3F0E08FEF808342C08A818F3F09F029
:1017D0003EC0E7E3F0E08FEF808339C08A81882341
:1017E00039F4E4E3F0E01082E5E3F0E010822FC08A
:1017F0008A81813041F4E4E3F0E01082E5E3F0E037
:101800008FEF808324C08A818F3F09F5E4E3F0E005
:101810008FEF80831CC08A81882339F4E1E3F0E0F4
:101820001082E2E3F0E0108212C08A81813041F43C
:10183000E1E3F0E01082E2E3F0E08FEF808307C0A5
:101840008A818F3F21F4E1E3F0E08FEF80830F90F6
:101850000F900F900F90CF91DF910895DF93CF936A
:1018600000D000D0CDB7DEB78A8319828A81843058
:1018700090F58A81282F30E03C832B838B819C81DB
:1018800081309105D1F02B813C81223031052CF43F
:101890008B819C81009761F01EC02B813C8122309E
:1018A000310581F08B819C818330910581F013C0DB
:1018B000E9E3F0E0808189830EC0E6E3F0E0808117
:1018C000898309C0E3E3F0E08081898304C0E0E319
:1018D000F0E08081898389810F900F900F900F90A5
:1018E000CF91DF910895DF93CF9300D000D0CDB793
:1018F000DEB789836A838981843090F58981282FB6
:1019000030E03C832B838B819C8181309105D1F029
:101910002B813C81223031052CF48B819C810097F6
:1019200061F01EC02B813C812230310581F08B811A
:101930009C818330910581F013C0EBE3F0E08A8154
:1019400080830EC0E8E3F0E08A81808309C0E5E38C
:10195000F0E08A81808304C0E2E3F0E08A81808342
:101960000F900F900F900F90CF91DF910895DF931C
:10197000CF9300D00F92CDB7DEB7898389818430B1
:1019800008F03EC08981282F30E03B832A838A817A
:101990009B8181309105E9F02A813B81223031051C
:1019A0002CF48A819B81009761F02AC02A813B81B7
:1019B00022303105B1F08A819B8183309105C9F0D5
:1019C0001FC0ABE3B0E0EBE3F0E0808180958C9347
:1019D00017C0A8E3B0E0E8E3F0E0808180958C9345
:1019E0000FC0A5E3B0E0E5E3F0E0808180958C9343
:1019F00007C0A2E3B0E0E2E3F0E0808180958C9341
:101A00000F900F900F90CF91DF9108951F920F923A
:101A10000FB60F9211242F933F934F935F936F93C1
:101A20007F938F939F93AF93BF93EF93FF93DF9336
:101A3000CF93CDB7DEB78091040290910502009755
:101A400029F0E0910402F09105020995CF91DF9110
:101A5000FF91EF91BF91AF919F918F917F916F9186
:101A60005F914F913F912F910F900FBE0F901F905C
:101A700018951F920F920FB60F9211242F933F9338
:101A80004F935F936F937F938F939F93AF93BF9386
:101A9000EF93FF93DF93CF93CDB7DEB7809106022C
:101AA00090910702009729F0E0910602F091070259
:101AB0000995CF91DF91FF91EF91BF91AF919F91E8
:101AC0008F917F916F915F914F913F912F910F90E7
:101AD0000FBE0F901F9018951F920F920FB60F9286
:101AE00011242F933F934F935F936F937F938F9323
:101AF0009F93AF93BF93EF93FF93DF93CF93CDB7B4
:101B0000DEB78091080290910902009729F0E091D8
:101B10000802F09109020995CF91DF91FF91EF91B1
:101B2000BF91AF919F918F917F916F915F914F91F5
:101B30003F912F910F900FBE0F901F901895DF933C
:101B4000CF9300D0CDB7DEB79A83898389819A81FC
:101B500090930502809304020F900F90CF91DF9134
:101B60000895DF93CF9300D0CDB7DEB79A838983F2
:101B700089819A8190930702809306020F900F90BB
:101B8000CF91DF910895DF93CF9300D0CDB7DEB72B
:101B90009A83898389819A819093090280930802AC
:101BA0000F900F90CF91DF910895DF93CF9300D0E6
:101BB000CDB7DEB789836A8383E062E04A810E9401
:101BC0007D07A5E5B0E0E5E5F0E08081982F9C7FFA
:101BD0008981892B8C93ABE5B0E0EBE5F0E0808167
:101BE00080648C930F900F90CF91DF910895DF93D5
:101BF000CF9300D0CDB7DEB789836A8383E063E0FB
:101C00004A810E947D07A5E5B0E0E5E5F0E080812E
:101C1000282F237F8981882F90E0880F991F880FB4
:101C2000991F822B8C93ABE5B0E0EBE5F0E080816F
:101C300080688C930F900F90CF91DF910895DF9380
:101C4000CF9300D0CDB7DEB789836A8381E062E0AD
:101C50004A810E947D078981823041F4A4E5B0E089
:101C6000E4E5F0E080818F7B8C930AC0898183302A
:101C700039F4A4E5B0E0E4E5F0E0808180648C9381
:101C8000ABE5B0E0EBE5F0E0808180628C930F90F3
:101C90000F90CF91DF910895DF93CF93CDB7DEB74B
:101CA000ABE5B0E0EBE5F0E080818F7B8C93CF91EA
:101CB000DF910895DF93CF93CDB7DEB7ABE5B0E00A
:101CC000EBE5F0E080818F778C93CF91DF910895E1
:101CD000DF93CF93CDB7DEB7ABE5B0E0EBE5F0E057
:101CE00080818F7D8C93CF91DF910895DF93CF9387
:101CF0000F92CDB7DEB78983898187708983A7E288
:101D0000B0E0E7E2F0E08081982F907E8981892B16
:101D10008C93A6E2B0E0E6E2F0E0808180648C93F0
:101D20000F90CF91DF910895DF93CF93CDB7DEB7BA
:101D3000A7E2B0E0E7E2F0E08081282F2F738091E6
:101D4000ED01882F90E0002496958795079496954D
:101D500087950794982F802D822B8C938091EE018C
:101D6000882341F4A7E2B0E0E7E2F0E080818F7DD4
:101D70008C930BC08091EE01813039F4A7E2B0E082
:101D8000E7E2F0E0808180628C93A6E2B0E0E6E2D8
:101D9000F0E0808180688C938091EC01882399F138
:101DA0008091EC01813079F4A6E2B0E0E6E2F0E067
:101DB000808180628C93A0E5B0E0E0E5F0E0808176
:101DC0008F708C9320C08091EC018230E1F4A6E208
:101DD000B0E0E6E2F0E0808180628C93A0E5B0E0C4
:101DE000E0E5F0E08081282F2F708091F001882FAE
:101DF00090E0880F991F82959295907F9827807F19
:101E00009827822B8C93A6E2B0E0E6E2F0E0808196
:101E1000982F987F8091EF018770892B8C93A6E291
:101E2000B0E0E6E2F0E08081877F8C93CF91DF9194
:101E30000895DF93CF930F92CDB7DEB78983898161
:101E40000E94760EE6E2F0E08081882F90E08071BB
:101E500090700097B9F30E944D0F90930B028093FE
:101E60000A02A6E2B0E0E6E2F0E0808180618C93B5
:101E700080910A0290910B020F90CF91DF9108950B
:101E8000DF93CF930F92CDB7DEB7898389810E940C
:101E9000760E0F90CF91DF910895DF93CF9300D00E
:101EA000CDB7DEB71A8219828091EE018823B9F48A
:101EB000E4E2F0E08081882F90E09A838983E5E274
:101EC000F0E08081882F90E083709070382F222777
:101ED00089819A81822B932B9A83898320C0809158
:101EE000EE018130E1F4E4E2F0E0808182958695B4
:101EF00086958370882F90E090709A838983E5E2BD
:101F0000F0E08081882F90E09C01220F331F220F88
:101F1000331F89819A81822B932B9A8389838981AC
:101F20009A810F900F90CF91DF910895DF93CF9317
:101F30000F92CDB7DEB7898380E0698140E00E94CF
:101F40007D070F90CF91DF910895DF93CF9300D05D
:101F50000F92CDB7DEB789830F900F900F90CF917E
:101F6000DF910895DF93CF9300D0CDB7DEB789839B
:101F70006A8389816A8142E00E947D070F900F90F9
:101F8000CF91DF910895DF93CF9300D00F92CDB71B
:101F9000DEB789836A834B838B81882331F48981FF
:101FA0006A8140E00E94060A08C08B81813029F4D2
:101FB00089816A8141E00E94060A0F900F900F907C
:101FC000CF91DF910895DF93CF9300D00F92CDB7DB
:101FD000DEB789836A834B838B81882331F48981BF
:101FE0006A8141E00E94060A08C08B81813029F491
:101FF00089816A8140E00E94060A0F900F900F903D
:10200000CF91DF910895DF93CF9300D0CDB7DEB7A6
:1020100089836A8389816A810E94000B0F900F90E7
:10202000CF91DF910895DF93CF93CDB7DEB780E0F6
:1020300063E042E00E947D0780E062E042E00E94AF
:102040007D0781E060E042E00E947D0781E061E081
:1020500042E00E947D0781E062E042E00E947D074D
:1020600081E064E042E00E947D0782E00E9444102B
:1020700088E20E9444108CE00E94441081E00E949B
:102080004410CF91DF9108950F931F93DF93CF9367
:10209000CDB7DEB7C456D0400FB6F894DEBF0FBE42
:1020A000CDBFFE01EC59FF4F808380E063E040E04C
:1020B0000E94060AFE01E15AFF4F80E090E0A0E88E
:1020C000BFE380839183A283B3838E01055A1F4FA0
:1020D000FE01E15AFF4F608171818281938120E08E
:1020E00030E04AE753E40E941F02DC01CB01F80113
:1020F00080839183A283B383FE01E55AFF4F608101
:1021000071818281938120E030E040E85FE30E94AA
:102110002504882344F4FE01E75AFF4F81E090E054
:102120009183808364C0FE01E55AFF4F6081718115
:102130008281938120E03FEF4FE757E40E94C5037F
:1021400018160CF043C0FE01E15AFF4F6081718107
:102150008281938120E030E040E251E40E941F023E
:10216000DC01CB018E01075A1F4FBC01CD010E943B
:102170004900DC01CB01F801918380831FC0FE017F
:10218000E95AFF4F89E190E091838083FE01E95A8B
:10219000FF4F808191810197F1F7FE01E95AFF4FCE
:1021A00091838083DE01A75ABF4FFE01E75AFF4F9C
:1021B00080819181019711969C938E93FE01E75A3D
:1021C000FF4F808191810097D1F627C08E01075A79
:1021D0001F4FFE01E55AFF4F60817181828193811B
:1021E0000E944900DC01CB01F80191838083DE016C
:1021F000AB5ABF4FFE01E75AFF4F808191818D930B
:102200009C93FE01EB5AFF4F808191810197F1F77A
:10221000FE01EB5AFF4F9183808380E062E041E052
:102220000E94060AFE01EF5AFF4F80E090E0A0E80E
:10223000BFE380839183A283B3838E01035B1F4F2F
:10224000FE01EF5AFF4F608171818281938120E00E
:1022500030E04AE753E40E941F02DC01CB01F801A1
:1022600080839183A283B383FE01E35BFF4F608190
:1022700071818281938120E030E040E85FE30E9439
:102280002504882344F4FE01E55BFF4F81E090E0E4
:102290009183808364C0FE01E35BFF4F60817181A5
:1022A0008281938120E03FEF4FE757E40E94C5030E
:1022B00018160CF043C0FE01EF5AFF4F6081718188
:1022C0008281938120E030E040E251E40E941F02CD
:1022D000DC01CB018E01055B1F4FBC01CD010E94CB
:1022E0004900DC01CB01F801918380831FC0FE010E
:1022F000E75BFF4F89E190E091838083FE01E75B1C
:10230000FF4F808191810197F1F7FE01E75BFF4F5D
:1023100091838083DE01A55BBF4FFE01E55BFF4F2C
:1023200080819181019711969C938E93FE01E55BCC
:10233000FF4F808191810097D1F627C08E01055B08
:102340001F4FFE01E35BFF4F6081718182819381AA
:102350000E944900DC01CB01F80191838083DE01FA
:10236000A95BBF4FFE01E55BFF4F808191818D939B
:102370009C93FE01E95BFF4F808191810197F1F70A
:10238000FE01E95BFF4F91838083DE01AD59BF4FB2
:10239000FE01EC59FF4F808182958F708C93FE0176
:1023A000ED59FF4F8081982F917081E060E0492FB7
:1023B0000E94060AFE01ED59FF4F80818695982FF5
:1023C000917081E061E0492F0E94060AFE01ED59FB
:1023D000FF4F808186958695982F917081E062E00D
:1023E000492F0E94060AFE01ED59FF4F8081869514
:1023F00086958695982F917081E064E0492F0E9420
:10240000060AFE01ED5BFF4F80E090E0A0E8BFE32D
:1024100080839183A283B3838E01015C1F4FFE01F1
:10242000ED5BFF4F608171818281938120E030E01C
:102430004AE753E40E941F02DC01CB01F8018083CC
:102440009183A283B383FE01FF96608171818281B3
:10245000938120E030E040E85FE30E942504882378
:102460002CF481E090E09EAF8DAF46C0FE01FF9658
:10247000608171818281938120E03FEF4FE757E4D3
:102480000E94C503181664F5FE01ED5BFF4F6081E5
:1024900071818281938120E030E040E251E40E942A
:1024A0001F02DC01CB01BC01CD010E944900DC010F
:1024B000CB019EAF8DAF0FC089E190E09CAF8BAF99
:1024C0008BAD9CAD0197F1F79CAF8BAF8DAD9EAD01
:1024D00001979EAF8DAF8DAD9EAD009769F716C089
:1024E000FE01FF9660817181828193810E94490083
:1024F000DC01CB019EAF8DAF8DAD9EAD9AAF89AFA4
:1025000089AD9AAD0197F1F79AAF89AF80E062E0AB
:1025100040E00E94060A80E090E0A0E8BFE38DABB7
:102520009EABAFABB8AF6DA97EA98FA998AD20E0E7
:1025300030E04AE753E40E941F02DC01CB0189AB83
:102540009AABABABBCAB69A97AA98BA99CA920E0DB
:1025500030E040E85FE30E94250488232CF481E00A
:1025600090E098AB8FA73FC069A97AA98BA99CA9D5
:1025700020E03FEF4FE757E40E94C50318164CF5E3
:102580006DA97EA98FA998AD20E030E040E251E42A
:102590000E941F02DC01CB01BC01CD010E94490059
:1025A000DC01CB0198AB8FA70FC089E190E09EA71B
:1025B0008DA78DA59EA50197F1F79EA78DA78FA545
:1025C00098A9019798AB8FA78FA598A9009769F74D
:1025D00014C069A97AA98BA99CA90E944900DC01B1
:1025E000CB0198AB8FA78FA598A99CA78BA78BA58C
:1025F0009CA50197F1F79CA78BA780E062E041E0E2
:102600000E94060A80E090E0A0E8BFE38FA398A7AD
:10261000A9A7BAA76FA178A589A59AA520E030E05F
:102620004AE753E40E941F02DC01CB018BA39CA369
:10263000ADA3BEA36BA17CA18DA19EA120E030E043
:1026400040E85FE30E94250488232CF481E090E0B9
:102650009AA389A33FC06BA17CA18DA19EA120E07C
:102660003FEF4FE757E40E94C50318164CF56FA1E2
:1026700078A589A59AA520E030E040E251E40E94C7
:102680001F02DC01CB01BC01CD010E944900DC012D
:10269000CB019AA389A30FC089E190E098A38F8F03
:1026A0008F8D98A10197F1F798A38F8F89A19AA197
:1026B00001979AA389A389A19AA1009769F714C0E9
:1026C0006BA17CA18DA19EA10E944900DC01CB01E0
:1026D0009AA389A389A19AA19E8F8D8F8D8D9E8D9E
:1026E0000197F1F79E8F8D8FDE01AD59BF4FFE012F
:1026F000EC59FF4F80818F708C93FE01ED59FF4F95
:102700008081982F917081E060E0492F0E94060A35
:10271000FE01ED59FF4F80818695982F917081E0E1
:1027200061E0492F0E94060AFE01ED59FF4F8081AA
:1027300086958695982F917081E062E0492F0E94DE
:10274000060AFE01ED59FF4F808186958695869594
:10275000982F917081E064E0492F0E94060A80E082
:1027600090E0A0E8BFE3898F9A8FAB8FBC8F698D13
:102770007A8D8B8D9C8D20E030E04AE753E40E94F7
:102780001F02DC01CB018D8B9E8BAF8BB88F6D89C7
:102790007E898F89988D20E030E040E85FE30E94D9
:1027A000250488232CF481E090E09C8B8B8B3FC028
:1027B0006D897E898F89988D20E03FEF4FE757E440
:1027C0000E94C50318164CF5698D7A8D8B8D9C8DF2
:1027D00020E030E040E251E40E941F02DC01CB0126
:1027E000BC01CD010E944900DC01CB019C8B8B8B8D
:1027F0000FC089E190E09A8B898B89899A8901972A
:10280000F1F79A8B898B8B899C8901979C8B8B8B99
:102810008B899C89009769F714C06D897E898F899F
:10282000988D0E944900DC01CB019C8B8B8B8B899E
:102830009C89988B8F878F8598890197F1F7988B62
:102840008F8780E062E040E00E94060A80E090E02E
:10285000A0E8BFE38B879C87AD87BE876B857C85AF
:102860008D859E8520E030E04AE753E40E941F02F8
:10287000DC01CB018F839887A987BA876F81788520
:1028800089859A8520E030E040E85FE30E942504D6
:1028900088232CF481E090E09E838D833FC06F817C
:1028A000788589859A8520E03FEF4FE757E40E94BD
:1028B000C50318164CF56B857C858D859E8520E0BB
:1028C00030E040E251E40E941F02DC01CB01BC0178
:1028D000CD010E944900DC01CB019E838D830FC096
:1028E00089E190E09C838B838B819C810197F1F738
:1028F0009C838B838D819E8101979E838D838D81A7
:102900009E81009769F714C06F81788589859A85C3
:102910000E944900DC01CB019E838D838D819E81C5
:102920009A83898389819A810197F1F79A838983B0
:10293000CC59DF4F0FB6F894DEBF0FBECDBFCF919D
:10294000DF911F910F9108950F931F93DF93CF9302
:10295000CDB7DEB7C456D0400FB6F894DEBF0FBE79
:10296000CDBFFE01EC59FF4F808380E063E041E082
:102970000E94060AFE01E15AFF4F80E090E0A0E8C5
:10298000BFE380839183A283B3838E01055A1F4FD7
:10299000FE01E15AFF4F608171818281938120E0C5
:1029A00030E04AE753E40E941F02DC01CB01F8014A
:1029B00080839183A283B383FE01E55AFF4F608138
:1029C00071818281938120E030E040E85FE30E94E2
:1029D0002504882344F4FE01E75AFF4F81E090E08C
:1029E0009183808364C0FE01E55AFF4F608171814D
:1029F0008281938120E03FEF4FE757E40E94C503B7
:102A000018160CF043C0FE01E15AFF4F608171813E
:102A10008281938120E030E040E251E40E941F0275
:102A2000DC01CB018E01075A1F4FBC01CD010E9472
:102A30004900DC01CB01F801918380831FC0FE01B6
:102A4000E95AFF4F89E190E091838083FE01E95AC2
:102A5000FF4F808191810197F1F7FE01E95AFF4F05
:102A600091838083DE01A75ABF4FFE01E75AFF4FD3
:102A700080819181019711969C938E93FE01E75A74
:102A8000FF4F808191810097D1F627C08E01075AB0
:102A90001F4FFE01E55AFF4F608171818281938152
:102AA0000E944900DC01CB01F80191838083DE01A3
:102AB000AB5ABF4FFE01E75AFF4F808191818D9342
:102AC0009C93FE01EB5AFF4F808191810197F1F7B2
:102AD000FE01EB5AFF4F9183808380E062E041E08A
:102AE0000E94060AFE01EF5AFF4F80E090E0A0E846
:102AF000BFE380839183A283B3838E01035B1F4F67
:102B0000FE01EF5AFF4F608171818281938120E045
:102B100030E04AE753E40E941F02DC01CB01F801D8
:102B200080839183A283B383FE01E35BFF4F6081C7
:102B300071818281938120E030E040E85FE30E9470
:102B40002504882344F4FE01E55BFF4F81E090E01B
:102B50009183808364C0FE01E35BFF4F60817181DC
:102B60008281938120E03FEF4FE757E40E94C50345
:102B700018160CF043C0FE01EF5AFF4F60817181BF
:102B80008281938120E030E040E251E40E941F0204
:102B9000DC01CB018E01055B1F4FBC01CD010E9402
:102BA0004900DC01CB01F801918380831FC0FE0145
:102BB000E75BFF4F89E190E091838083FE01E75B53
:102BC000FF4F808191810197F1F7FE01E75BFF4F95
:102BD00091838083DE01A55BBF4FFE01E55BFF4F64
:102BE00080819181019711969C938E93FE01E55B04
:102BF000FF4F808191810097D1F627C08E01055B40
:102C00001F4FFE01E35BFF4F6081718182819381E1
:102C10000E944900DC01CB01F80191838083DE0131
:102C2000A95BBF4FFE01E55BFF4F808191818D93D2
:102C30009C93FE01E95BFF4F808191810197F1F741
:102C4000FE01E95BFF4F91838083DE01AD59BF4FE9
:102C5000FE01EC59FF4F808182958F708C93FE01AD
:102C6000ED59FF4F8081982F917081E060E0492FEE
:102C70000E94060AFE01ED59FF4F80818695982F2C
:102C8000917081E061E0492F0E94060AFE01ED5932
:102C9000FF4F808186958695982F917081E062E044
:102CA000492F0E94060AFE01ED59FF4F808186954B
:102CB00086958695982F917081E064E0492F0E9457
:102CC000060AFE01ED5BFF4F80E090E0A0E8BFE365
:102CD00080839183A283B3838E01015C1F4FFE0129
:102CE000ED5BFF4F608171818281938120E030E054
:102CF0004AE753E40E941F02DC01CB01F801808304
:102D00009183A283B383FE01FF96608171818281EA
:102D1000938120E030E040E85FE30E9425048823AF
:102D20002CF481E090E09EAF8DAF46C0FE01FF968F
:102D3000608171818281938120E03FEF4FE757E40A
:102D40000E94C503181664F5FE01ED5BFF4F60811C
:102D500071818281938120E030E040E251E40E9461
:102D60001F02DC01CB01BC01CD010E944900DC0146
:102D7000CB019EAF8DAF0FC089E190E09CAF8BAFD0
:102D80008BAD9CAD0197F1F79CAF8BAF8DAD9EAD38
:102D900001979EAF8DAF8DAD9EAD009769F716C0C0
:102DA000FE01FF9660817181828193810E944900BA
:102DB000DC01CB019EAF8DAF8DAD9EAD9AAF89AFDB
:102DC00089AD9AAD0197F1F79AAF89AF80E062E0E3
:102DD00040E00E94060A80E090E0A0E8BFE38DABEF
:102DE0009EABAFABB8AF6DA97EA98FA998AD20E01F
:102DF00030E04AE753E40E941F02DC01CB0189ABBB
:102E00009AABABABBCAB69A97AA98BA99CA920E012
:102E100030E040E85FE30E94250488232CF481E041
:102E200090E098AB8FA73FC069A97AA98BA99CA90C
:102E300020E03FEF4FE757E40E94C50318164CF51A
:102E40006DA97EA98FA998AD20E030E040E251E461
:102E50000E941F02DC01CB01BC01CD010E94490090
:102E6000DC01CB0198AB8FA70FC089E190E09EA752
:102E70008DA78DA59EA50197F1F79EA78DA78FA57C
:102E800098A9019798AB8FA78FA598A9009769F784
:102E900014C069A97AA98BA99CA90E944900DC01E8
:102EA000CB0198AB8FA78FA598A99CA78BA78BA5C3
:102EB0009CA50197F1F79CA78BA780E062E041E019
:102EC0000E94060A80E090E0A0E8BFE38FA398A7E5
:102ED000A9A7BAA76FA178A589A59AA520E030E097
:102EE0004AE753E40E941F02DC01CB018BA39CA3A1
:102EF000ADA3BEA36BA17CA18DA19EA120E030E07B
:102F000040E85FE30E94250488232CF481E090E0F0
:102F10009AA389A33FC06BA17CA18DA19EA120E0B3
:102F20003FEF4FE757E40E94C50318164CF56FA119
:102F300078A589A59AA520E030E040E251E40E94FE
:102F40001F02DC01CB01BC01CD010E944900DC0164
:102F5000CB019AA389A30FC089E190E098A38F8F3A
:102F60008F8D98A10197F1F798A38F8F89A19AA1CE
:102F700001979AA389A389A19AA1009769F714C020
:102F80006BA17CA18DA19EA10E944900DC01CB0117
:102F90009AA389A389A19AA19E8F8D8F8D8D9E8DD5
:102FA0000197F1F79E8F8D8FDE01AD59BF4FFE0166
:102FB000EC59FF4F80818F708C93FE01ED59FF4FCC
:102FC0008081982F917081E060E0492F0E94060A6D
:102FD000FE01ED59FF4F80818695982F917081E019
:102FE00061E0492F0E94060AFE01ED59FF4F8081E2
:102FF00086958695982F917081E062E0492F0E9416
:10300000060AFE01ED59FF4F8081869586958695CB
:10301000982F917081E064E0492F0E94060A80E0B9
:1030200090E0A0E8BFE3898F9A8FAB8FBC8F698D4A
:103030007A8D8B8D9C8D20E030E04AE753E40E942E
:103040001F02DC01CB018D8B9E8BAF8BB88F6D89FE
:103050007E898F89988D20E030E040E85FE30E9410
:10306000250488232CF481E090E09C8B8B8B3FC05F
:103070006D897E898F89988D20E03FEF4FE757E477
:103080000E94C50318164CF5698D7A8D8B8D9C8D29
:1030900020E030E040E251E40E941F02DC01CB015D
:1030A000BC01CD010E944900DC01CB019C8B8B8BC4
:1030B0000FC089E190E09A8B898B89899A89019761
:1030C000F1F79A8B898B8B899C8901979C8B8B8BD1
:1030D0008B899C89009769F714C06D897E898F89D7
:1030E000988D0E944900DC01CB019C8B8B8B8B89D6
:1030F0009C89988B8F878F8598890197F1F7988B9A
:103100008F8780E062E040E00E94060A80E090E065
:10311000A0E8BFE38B879C87AD87BE876B857C85E6
:103120008D859E8520E030E04AE753E40E941F022F
:10313000DC01CB018F839887A987BA876F81788557
:1031400089859A8520E030E040E85FE30E9425040D
:1031500088232CF481E090E09E838D833FC06F81B3
:10316000788589859A8520E03FEF4FE757E40E94F4
:10317000C50318164CF56B857C858D859E8520E0F2
:1031800030E040E251E40E941F02DC01CB01BC01AF
:10319000CD010E944900DC01CB019E838D830FC0CD
:1031A00089E190E09C838B838B819C810197F1F76F
:1031B0009C838B838D819E8101979E838D838D81DE
:1031C0009E81009769F714C06F81788589859A85FB
:1031D0000E944900DC01CB019E838D838D819E81FD
:1031E0009A83898389819A810197F1F79A838983E8
:1031F00080910D028F5F80930D0280910D028431CA
:1032000069F480910C028F5F80930C0210920D0282
:1032100080910C02843111F410920C02CC59DF4FD2
:103220000FB6F894DEBF0FBECDBFCF91DF911F91D7
:103230000F910895DF93CF9300D00F92CDB7DEB7F3
:103240009B838A8319820EC08981282F30E08A816E
:103250009B81FC01E20FF31F80810E94A4148981ED
:103260008F5F89838981282F30E08A819B81FC01CF
:10327000E20FF31F8081882339F70F900F900F9092
:10328000CF91DF910895DF93CF9300D000D00F92BC
:10329000CDB7DEB78A836B838A81282F30E03D83E8
:1032A0002C838C819D8181309105E9F02C813D81B9
:1032B000223031052CF48C819D81009761F030C063
:1032C0002C813D8122303105C1F08C819D8183307C
:1032D0009105E9F025C08B8189838B8180930D0254
:1032E00010920C021DC08B81805C89838B8180933E
:1032F0000D0281E080930C0213C08B818C5E898368
:103300008B8180930D0282E080930C0209C08B8137
:103310008C5A89838B8180930D0283E080930C0209
:10332000898180680E9444100F900F900F900F9039
:103330000F90CF91DF910895DF93CF9300D000D00D
:10334000CDB7DEB79A8389836B834C838B816C8185
:103350000E94431989819A810E941A190F900F9037
:103360000F900F90CF91DF910895DF93CF93CDB75A
:10337000DEB710920D0210920C0281E00E94441000
:10338000CF91DF910895DF93CF93CDB7DEB78091D2
:103390000D02833189F480910C02882369F4109224
:1033A0000D0281E080930C0280910C0290910D023D
:1033B000692F0E94431946C080910D02833189F420
:1033C00080910C02813069F410920D0282E08093AA
:1033D0000C0280910C0290910D02692F0E944319FA
:1033E00031C080910D02833189F480910C028230CA
:1033F00069F410920D0283E080930C0280910C021C
:1034000090910D02692F0E9443191CC080910D02FA
:10341000833181F480910C02833061F410920D02AB
:1034200010920C0280910C0290910D02692F0E9463
:10343000431908C084E10E94441080910D028F5FFF
:1034400080930D02CF91DF910895DF93CF93CDB795
:10345000DEB780910D02882391F480910C028823BD
:1034600071F483E180930D0283E080930C028091DC
:103470000C0290910D02692F0E94431949C080915E
:103480000D02882389F480910C02813069F483E174
:1034900080930D0210920C0280910C0290910D020B
:1034A000692F0E94431934C080910D02882391F442
:1034B00080910C02823071F483E180930D0281E0EF
:1034C00080930C0280910C0290910D02692F0E9452
:1034D00043191EC080910D02882391F480910C0243
:1034E000833071F483E180930D0282E080930C02BB
:1034F00080910C0290910D02692F0E94431908C01F
:1035000080E10E94441080910D02815080930D0251
:10351000CF91DF910895DF93CF93CDB7DEB78CE1E4
:103520000E944410CF91DF910895DF93CF93CDB7E0
:10353000DEB788E10E944410CF91DF910895DF93B8
:10354000CF9300D000D0CDB7DEB79B838A836C8346
:103550008C81882F90E00896880F991F880F991FFB
:10356000880F991F0E94441019820EC08981282F4C
:1035700030E08A819B81FC01E20FF31F80810E9471
:10358000A41489818F5F89838981883078F30F90B3
:103590000F900F900F90CF91DF910895DF93CF930D
:1035A0000F92CDB7DEB7898389810E94A4140F9052
:1035B000CF91DF910895DF93CF9300D00F92CDB7D5
:1035C000DEB789836A834B838A816B810E944319AA
:1035D00089810E94A4140F900F900F90CF91DF91DA
:1035E0000895DF93CF93CDB7DEB765970FB6F89404
:1035F000DEBF0FBECDBF6A8B7B8B8C8B9D8B8A8988
:103600009B899E012F5F3F4FB9014AE050E00E9425
:103610004321CE0101960E941A1965960FB6F894BF
:10362000DEBF0FBECDBFCF91DF910895DF93CF9363
:10363000CDB7DEB782E066E042E00E947D07CF9121
:10364000DF910895DF93CF93CDB7DEB782E066E0D8
:1036500041E00E94060ACF91DF910895DF93CF9356
:10366000CDB7DEB782E066E040E00E94060ACF9167
:10367000DF910895DF93CF93CDB7DEB782E066E0A8
:103680000E94000BCF91DF910895DF93CF93CDB7C8
:10369000DEB72E970FB6F894DEBF0FBECDBF82E027
:1036A00066E041E00E94060A80E090E0AAEFB3E401
:1036B0008B879C87AD87BE876B857C858D859E8536
:1036C00020E030E04AE753E40E941F02DC01CB0116
:1036D0008F839887A987BA876F81788589859A852E
:1036E00020E030E040E85FE30E94250488232CF4CA
:1036F00081E090E09E838D833FC06F8178858985CE
:103700009A8520E03FEF4FE757E40E94C503181663
:103710004CF56B857C858D859E8520E030E040E210
:1037200051E40E941F02DC01CB01BC01CD010E94CB
:103730004900DC01CB019E838D830FC089E190E0BD
:103740009C838B838B819C810197F1F79C838B8376
:103750008D819E8101979E838D838D819E810097AF
:1037600069F714C06F81788589859A850E94490020
:10377000DC01CB019E838D838D819E819A83898319
:1037800089819A810197F1F79A83898382E066E0C3
:1037900040E00E94060A2E960FB6F894DEBF0FBED8
:1037A000CDBFCF91DF910895DF93CF93CDB7DEB733
:1037B000AA970FB6F894DEBF0FBECDBF82E066E0D9
:1037C00041E00E94060A80E090E0AAEFB3E48FA3F4
:1037D00098A7A9A7BAA76FA178A589A59AA520E05F
:1037E00030E04AE753E40E941F02DC01CB018BA3C7
:1037F0009CA3ADA3BEA36BA17CA18DA19EA120E043
:1038000030E040E85FE30E94250488232CF481E047
:1038100090E09AA389A33FC06BA17CA18DA19EA13A
:1038200020E03FEF4FE757E40E94C50318164CF520
:103830006FA178A589A59AA520E030E040E251E487
:103840000E941F02DC01CB01BC01CD010E94490096
:10385000DC01CB019AA389A30FC089E190E098A372
:103860008F8F8F8D98A10197F1F798A38F8F89A1E2
:103870009AA101979AA389A389A19AA1009769F7B0
:1038800014C06BA17CA18DA19EA10E944900DC0106
:10389000CB019AA389A389A19AA19E8F8D8F8D8D2B
:1038A0009E8D0197F1F79E8F8D8F82E066E040E05C
:1038B0000E94060A80E090E0A0E7B2E4898F9A8F28
:1038C000AB8FBC8F698D7A8D8B8D9C8D20E030E025
:1038D0004AE753E40E941F02DC01CB018D8B9E8BD3
:1038E000AF8BB88F6D897E898F89988D20E030E00D
:1038F00040E85FE30E94250488232CF481E090E0F7
:103900009C8B8B8B3FC06D897E898F89988D20E041
:103910003FEF4FE757E40E94C50318164CF5698D39
:103920007A8D8B8D9C8D20E030E040E251E40E9446
:103930001F02DC01CB01BC01CD010E944900DC016A
:10394000CB019C8B8B8B0FC089E190E09A8B898B8C
:1039500089899A890197F1F79A8B898B8B899C8940
:1039600001979C8B8B8B8B899C89009769F714C07E
:103970006D897E898F89988D0E944900DC01CB0179
:103980009C8B8B8B8B899C89988B8F878F85988953
:103990000197F1F7988B8F8782E066E041E00E9403
:1039A000060A80E090E0AAEFB3E48B879C87AD879E
:1039B000BE876B857C858D859E8520E030E04AE75B
:1039C00053E40E941F02DC01CB018F839887A987F3
:1039D000BA876F81788589859A8520E030E040E854
:1039E0005FE30E94250488232CF481E090E09E830D
:1039F0008D833FC06F81788589859A8520E03FEF70
:103A00004FE757E40E94C50318164CF56B857C857B
:103A10008D859E8520E030E040E251E40E941F0247
:103A2000DC01CB01BC01CD010E944900DC01CB01CE
:103A30009E838D830FC089E190E09C838B838B8173
:103A40009C810197F1F79C838B838D819E810197E7
:103A50009E838D838D819E81009769F714C06F814D
:103A6000788589859A850E944900DC01CB019E8377
:103A70008D838D819E819A83898389819A81019723
:103A8000F1F79A83898382E066E040E00E94060AAB
:103A9000AA960FB6F894DEBF0FBECDBFCF91DF91CF
:103AA0000895DF93CF9300D00F92CDB7DEB789830F
:103AB0006A834B8389816A814B810E947D070F90C5
:103AC0000F900F90CF91DF910895DF93CF9300D0A7
:103AD000CDB7DEB789836A8389816A810E946B09C9
:103AE0000F900F90CF91DF910895DF93CF93CDB7D3
:103AF000DEB781E067E042E00E947D0780E064E09D
:103B000042E00E947D0780E065E042E00E947D0780
:103B100080E066E042E00E947D0783E067E040E0ED
:103B20000E94511D83E066E040E00E94511D83E049
:103B300065E040E00E94511D83E063E040E00E94A8
:103B4000511D0E941310AFE5B0E0EFE5F0E0808179
:103B500080688C930E94940E80E00E94960FCF9113
:103B6000DF910895DF93CF930F92CDB7DEB78983AE
:103B700080E065E049810E94C30F83E067E00E9416
:103B8000B41E0F90CF91DF910895DF93CF93CDB7FF
:103B9000DEB781E067E041E00E94C30F83E063E0AD
:103BA0000E94D61ECF91DF910895DF93CF93CDB7BA
:103BB000DEB781E067E040E00E94C30F83E063E08E
:103BC0000E94D61ECF91DF910895DF93CF93CDB79A
:103BD000DEB783E065E00E94381ECF91DF91089543
:103BE000DF93CF9300D000D00F92CDB7DEB78A839A
:103BF0006B8319828A816B810E94651D898389810B
:103C0000882359F480911402882331F481E0809351
:103C1000140281E08C8304C005C0109214021C823F
:103C20008C818D838D810F900F900F900F900F904E
:103C3000CF91DF910895DF93CF9300D000D0CDB71F
:103C4000DEB789836A8389816A810E94651D8093BA
:103C500015028091150280911602809115028093C1
:103C600016020F900F900F900F90CF91DF91089553
:103C7000DF93CF9300D0CDB7DEB789836A83898184
:103C80006A810E94651D80931702909117028091AE
:103C900018029817D1F080911702882381F480913F
:103CA0000102833091F080E064E00E94031083E021
:103CB00065E00E94F81E81E080930E0206C083E05A
:103CC00065E00E94F81E10920E0280911702809308
:103CD00018020F900F90CF91DF910895DF93CF934B
:103CE000CDB7DEB783E067E00E94F01D882339F08E
:103CF00081E00E94B21D81E080930F0203C080E04A
:103D00000E94B21D83E063E00E94F01D882349F009
:103D100083E060E00E94F70D85ED9DE10E94B10D0A
:103D20000BC082E060E00E94F70D85EC9DE10E94EF
:103D3000B10D82E080930F0283E065E00E94F01DE8
:103D4000882339F083E065E00E94381E0E94221F1C
:103D500004C083E065E00E94381E83E066E00E94B4
:103D6000F01DCF91DF910895DF93CF9300D00F9294
:103D7000CDB7DEB78A836B838A816B810E94651D14
:103D800089838981882351F480911902882341F421
:103D900081E0809319020E94451B02C01092190213
:103DA0000F900F900F90CF91DF910895DF93CF93F5
:103DB00000D00F92CDB7DEB78A836B838A816B8187
:103DC0000E94651D89838981882351F480911A029C
:103DD000882341F481E080931A020E94451B02C0AF
:103DE00010921A020F900F900F90CF91DF910895CB
:103DF000DF93CF9300D00F92CDB7DEB78A836B836A
:103E00008A816B810E94651D89838981882391F451
:103E100080911B02882381F481E080931B0280E063
:103E200060E00E94431980E690E00E941A190E9407
:103E3000451B02C010921B020F900F900F90CF9164
:103E4000DF910895DF93CF930F92CDB7DEB780E077
:103E500064E00E946B0989838981882391F48091B1
:103E60001C028823D9F481E080931C0280E060E08A
:103E70000E9443198BE690E00E941A1910920E02DC
:103E80000DC010921C0280E060E00E94431987E799
:103E900090E00E941A1981E080930E020F90CF915A
:103EA000DF910895DF93CF9300D00F92CDB7DEB7A7
:103EB0008A836B838A816B810E94651D89838981D6
:103EC000882351F480911D02882341F481E080937E
:103ED0001D020E94451B02C010921D020F900F9000
:103EE0000F90CF91DF910895DF93CF93CDB7DEB7D9
:103EF00080E060E00E94431981E890E00E941A1976
:103F000081E060E00E9443198CE890E00E941A1959
:103F100082E060E00E9443198DE990E00E941A1946
:103F2000CF91DF910895DF93CF9300D00F92CDB75B
:103F3000DEB70E9469200E946E1E83E066E00E9448
:103F4000651D898389818823A9F480911E028823B5
:103F500099F481E080931E0280910202843030F453
:103F6000809102028F5F8093020206C081E08093FD
:103F7000020202C010921E0280910202282F30E03D
:103F80003B832A838A819B818230910581F12A813A
:103F90003B812330310509F44AC08A819B818130FD
:103FA000910509F06FC083E063E00E946B098823EC
:103FB00009F06BC083E066E00E946B09882309F07A
:103FC00064C00E94E51D81E06FE00E94431984EB0C
:103FD00090E00E941A1983E066E00E94521F0E943E
:103FE0005A2081E08093010210920F024EC083E0BC
:103FF00063E00E946B09882309F047C083E066E014
:104000000E946B09882309F040C081E06FE00E94A4
:10401000431986EB90E00E941A1983E066E00E9443
:10402000521F82E0809301020E944B202EC083E049
:1040300063E00E946B09882341F583E066E00E94FB
:104040006B09882311F581E06FE00E94431988EB2A
:1040500090E00E941A1980E060E00E94431981E814
:1040600090E00E941A1983E08093010280E064E0EE
:1040700040E00E94060A0E945A2083E066E00E9407
:10408000521F03C081E0809302020F900F900F90A7
:10409000CF91DF910895DF93CF93CDB7DEB782E064
:1040A00060E00E9443198AEB90E00E941A19CF91B8
:1040B000DF910895DF93CF93CDB7DEB782E060E064
:1040C0000E94431986EC90E00E941A19CF91DF916B
:1040D0000895DF93CF9300D00F92CDB7DEB780E085
:1040E0000E94190F9A83898389819A819C01220FEA
:1040F000331FC901880F991F880F991F820F931FC3
:10410000CC01A0E0B0E0BC01CD010E94A904DC011B
:10411000CB01BC01CD0120E030EC4FE754E40E941C
:104120001903DC01CB018093100290931102A0933C
:104130001202B09313028091100290911102A0918B
:104140001202B0911302BC01CD0120E030E040E248
:1041500051E40E941F02DC01CB01BC01CD010E9491
:104160004900DC01CB019AE0692F0E940021892FD0
:104170008B8380910102823071F580910E02813033
:1041800051F582E06BE00E944319809110029091FA
:104190001102A0911202B0911302BC01CD010E9444
:1041A0004900DC01CB01882F90E0A0E0B0E0BC0129
:1041B000CD010E94F11A8EE20E94A4148B81882FF7
:1041C00090E0A0E0B0E0BC01CD010E94F11A8EEDBC
:1041D00090E00E941A190F900F900F90CF91DF91ED
:1041E0000895DF93CF93CDB7DEB70E94751D0E946F
:1041F000741F0E94161B0E94931F0E946920FBCF10
:10420000991B79E004C0991F961708F0961B881F28
:104210007A95C9F7809508952F923F924F925F92B9
:104220006F927F928F929F92AF92BF92CF92DF92C6
:10423000EF92FF920F931F93CF93DF93CDB7DEB72B
:10424000CA1BDB0B0FB6F894DEBF0FBECDBF0994BF
:104250002A88398848885F846E847D848C849B8416
:10426000AA84B984C884DF80EE80FD800C811B8124
:10427000AA81B981CE0FD11D0FB6F894DEBF0FBE53
:10428000CDBFED010895FB019F01E8944230C4F0D9
:104290004532B4F44A3029F497FB1EF49095819589
:1042A0009F4F642F77270E947421805D8A330CF022
:1042B000895D8193CB010097A1F716F45DE25193DC
:1042C0001082C9010C946421DC01FC01672F7191FB
:1042D0007723E1F7329704C07C916D9370836291EC
:1042E000AE17BF07C8F30895AA1BBB1B51E107C057
:1042F000AA1FBB1FA617B70710F0A61BB70B881F76
:10430000991F5A95A9F780959095BC01CD01089504
:04431000F894FFCF4F
:1043140041434353203A204F4E200041434353200E
:104324003A204F4646200041434353203A204F4E03
:104334000041434353203A204F464600476561728B
:104344002028522C4E2C4429203A204E0020202094
:104354002020202020202020202020202020202059
:10436400202020004E004400520044697374616EA2
:104374006365203A200020202020202020202020B7
:104384002020202020202020202020202000206DFC
:10439400000000000000000000000102020303030B
:1043A40003040404040404040405050505050505C3
:1043B40005050505050505050506060606060606A2
:1043C4000606060606060606060606060606060689
:1043D4000606060606060606060707070707070772
:1043E4000707070707070707070707070707070759
:1043F4000707070707070707070707070707070749
:104404000707070707070707070707070707070738
:104414000707070707070707070808080808080821
:104424000808080808080808080808080808080808
:1044340008080808080808080808080808080808F8
:1044440008080808080808080808080808080808E8
:1044540008080808080808080808080808080808D8
:1044640008080808080808080808080808080808C8
:1044740008080808080808080808080808080808B8
:1044840008080808080808080808080808080808A8
:104494000808080808080808080308FF00010006BF
:1044A4000000000A1F1F0E04000E1111111F1F1F10
:0444B4000001010002
:00000001FF
